:020000040800F2
:10000000C8490020D90200080F310008B52F0008A8
:100010000D3100088B1C0008EB55000800000000A3
:100020000000000000000000000000007502000851
:100030003D1D000800000000990200083D3900083D
:10004000F3020008F3020008F3020008F3020008BC
:10005000F3020008F3020008F3020008F3020008AC
:10006000F3020008F3020008F3020008F30200089C
:10007000F3020008F3020008F3020008F30200088C
:10008000F3020008F3020008F3020008F30200087C
:1000900075550008F3020008F3020008F302000897
:1000A000F3020008F3020008F3020008F30200085C
:1000B000F3020008F3020008F3020008F30200084C
:1000C000F3020008F3020008F3020008F30200083C
:1000D000F3020008F3020008F3020008F30200082C
:1000E000F3020008F3020008F302000800F002F82F
:1000F00000F0B0F80AA090E8000C82448344AAF112
:100100000107DA4501D100F0A5F8AFF2090EBAE80F
:100110000F0013F0010F18BFFB1A43F0010318473B
:1001200000580000205800000A444FF0000C10F85E
:10013000013B13F0070408BF10F8014B1D1108BF65
:1001400010F8015B641E05D010F8016B641E01F805
:10015000016BF9D113F0080F1EBF10F8014BAD1C55
:100160000C1B09D16D1E58BF01F801CBFAD505E073
:1001700014F8016B01F8016B6D1EF9D59142D6D3CD
:10018000704700000023002400250026103A28BFF5
:1001900078C1FBD8520728BF30C148BF0B607047F9
:1001A0006E2900F0DD81702900F02783662905F0B3
:1001B0002383652905F02083672905F01D836129C4
:1001C00005F01C8303681B0A28BF41F080016929E0
:1001D00000F08A81642900F08781752900F084810C
:1001E0006F2900F0B482782900F0F382E92900F049
:1001F0004F82E42900F04C82F52900F04982EF2972
:1002000000F0B182F82900F0F2820368DB0928BF10
:1002100041F08001632900F0F587732900F0FA8727
:10022000E32901F00580F32901F00A8000207047DE
:100230001FB501F057F804000020002105F0C6FAB0
:10024000401C60600020002105F0AAFAE0601FBD9C
:1002500010B510BD01F018F81146FFF7E9FF05F0E1
:1002600001FA01F0F5F803B4FFF7F2FF03BC01F067
:100270003DF90000074801680868B0E8F00F80F316
:100280000988022080F31488BFF36F8F6FF0020E8D
:1002900070470000900100200D494FF002020A60F3
:1002A000EFF309800B4B1A6812B120E9F00F1060D0
:1002B00008B503F07FF8BDE8084018600168B1E8B0
:1002C000F00F81F3098802494FF400320A60704749
:1002D0001008014090010020094880470948004764
:1002E000FEE7FEE7FEE7FEE7FEE7FEE7FEE7FEE7E6
:1002F000FEE7FEE704480549054A064B7047000043
:10030000C1390008ED000008C83D0020C8490020A0
:10031000C8410020C84100207CB51D4616460C008F
:10032000009001D02044401E074B7B442A4669467A
:100330000190304600F02DF905461CB100206946B9
:1003400000F03AF928467CBD9502000010B5431C28
:1003500002E010F8011B71B18107FAD14FF00132B0
:1003600002C88C1A8C4314EAC211F9D0C01A0A06CA
:1003700003D0C01E10BDC01A10BD0A0401D0801EDB
:1003800010BD0902FCD0401E10BD4FF00002042930
:10039000C0F0128010F0030C00F01B80CCF1040CB4
:1003A000BCF1020F18BF00F8012BA8BF20F8022BE8
:1003B000A1EB0C0100F00DB85FEAC17C24BF00F88E
:1003C000012B00F8012B48BF00F8012B70474FF0BC
:1003D000000200B5134694469646203922BFA0E895
:1003E0000C50A0E80C50B1F12001BFF4F7AF0907A1
:1003F00028BFA0E80C5048BF0CC05DF804EB890092
:1004000028BF40F8042B08BF704748BF20F8022BD4
:1004100011F0804F18BF00F8012B704770477047EC
:10042000704770B5044685690068C10601D530265D
:1004300000E02026C00707D070BDD4E90121304676
:100440009047206A401C20626D1EF6D570BD70B5C5
:10045000044685690078C00707D170BDD4E9012141
:1004600020209047206A401C20626D1EF6D570BD8A
:1004700009684A0501D540B27047C905FCD500B2EC
:10048000704709684A0501D5C0B27047C905FCD557
:1004900080B2704770B50C460546012A05D0287811
:1004A000800600D5EA69002302E0012305E05B1C19
:1004B000934202D2E05C0028F9D1A869E618C01A7C
:1004C000A861286A184428622846FFF7AAFF04E0BA
:1004D000D5E9012114F8010B9047B442F8D328461E
:1004E000FFF7B5FF70BD00002DE9F041064600247E
:1004F00010687529314616A510D0FFF7B9FF0028FE
:1005000002DA404213A507E031688A0701D512A537
:1005100002E0490704D511A5012401E0FFF7B1FF6E
:1005200000210A2206F1240709E0B0FBF2FCB0FB2F
:10053000F2F302FB1C00303078541846491C0028A6
:10054000F3D123462A463046BDE8F04100F069BAAF
:10055000000000002D0000002B0000002000000023
:1005600011680268006A530501D508700AE0D305D6
:1005700001D5088006E0130603D5C217C1E90002C1
:1005800000E008600120704701694A1C0261087898
:10059000704700B58FB0CDE90131002105910549C3
:1005A0007944CDE903101146684600F031F90FB0E7
:1005B00000BD0000E5FFFFFF0A6802F8010B0A60BA
:1005C0007047D1E900239A4202D2531C0B6010708D
:1005D000704700002DE9FF5F15468A460446DFF8A4
:1005E000AC80F8440027D8E900103E46CDE9001061
:1005F00010E03AF816106A4602A800F025FE411CE9
:1006000007D02178890603D5E269391891420DD8BF
:100610000744761C2078800602D5E069B84205DDE3
:10062000AE42E6DB3AF816000028E2D1A069C01B12
:10063000A0612046FFF7F5FED8E90010CDE90010D3
:10064000002017E03AF818106A4602A800F0FCFDF6
:10065000B0F1FF3F81460BD000250DF1080B05E0FE
:10066000D4E901211BF8050090476D1C4D45F7D3D7
:1006700008F10100B0428046E4DB206A3844206281
:100680002046FFF7E4FEBDE8FF9F00003E52000059
:100690002DE9F0418046D21D22F007020025D2E963
:1006A0000002F52915A614D0011E72F1000106DA28
:1006B0000023D0EB030063EB020211A608E0D8F898
:1006C00000108B0701D50FA602E0490701D50EA641
:1006D00001251146002408F1240704E000F05CF92C
:1006E00030323A55641C50EA0102F7D12B463246AB
:1006F00021464046BDE8F04100F093B900000000FB
:100700002D0000002B0000002000000030B400216C
:1007100000F1240408E002F00705D208303542EA6F
:100720004372DB086554491C52EA0305F3D104689F
:10073000002310A2250707D5A40600D421B1C4695F
:1007400001230DA2641EC46130BC00F06AB910B56B
:10075000044621461068FFF794FE02462046BDE895
:1007600010400023D2E7D21D22F00701D1E9002377
:10077000CCE700000000000030000000F0B40D469F
:100780000188090502D5214C7C4402E01F4C7C44C1
:100790000E34002100F1240608E002F00F071209D0
:1007A000E75D42EA03721B097754491C52EA0307CA
:1007B000F3D102780023120704D5702D06D009B1B9
:1007C000022311342246F0BC00F02BB9012310346F
:1007D000F8E770B504460D4621461068FFF751FE54
:1007E000024629462046BDE870400023C6E7D21DD8
:1007F00022F00703D3E90023C0E70368126843F03F
:10080000200303600823C3610023B7E7A050000062
:100810002DE9F05F894604464FF0000ADFF874B115
:10082000FB44C0F820A02046E1688847002874D027
:10083000252806D0D4E901219047206A401C206277
:10084000F1E700265F462046E168884720280546F4
:1008500007DB312D05D2781910F8200C08B10643BA
:10086000F1E7B00701D526F00406C4F81CA0002764
:10087000C4F818A02A2D09D0284604F0EBFE38B39E
:1008800004EB8708303DC8F8185019E059F8041BEC
:10089000204604EB87029161E1688847012F0546F5
:1008A00018D1E069002820DA26F020061DE0D8F8EB
:1008B000180000EB800005EB40003038C8F8180045
:1008C0002046E1688847054604F0C4FE0028EED1C2
:1008D000012F0AD02E2D08D12046E16888477F1CC1
:1008E0000546022F46F02006C4DBA069002803DA83
:1008F000404246F00106A061F00701D026F0100644
:100900006C2D0BD0682D09D04C2D39D06A2D35D0E7
:10091000742D35D07A2D33D016E038E0E1682F46BB
:1009200020468847B842054609D16C2F26D04FF49F
:100930008060E168064320468847054604E06C2F46
:100940001AD04FF4807006430DB3A5F14100192869
:1009500002D8203546F400664A46294620462660DD
:100960004E46FFF71DFC80B101280BD0F61D26F086
:10097000070000F1080956E74020E4E78020D8E7A7
:100980000020D6E706F104094DE7284652E7206A21
:10099000BDE8F09F3050000030B5B0F10A024FEAD8
:1009A000900E71F100034EEA817EB0EB0E0061EB18
:1009B00091014FEA101E4EEA017E10EB0E0041EB52
:1009C00011114FEA102E4EEA016E10EB0E0041EBB2
:1009D00011214FEA104E4EEA014E10EB0E0041EB92
:1009E0001141401841F100014FEAD00040EA417046
:1009F0004FEAD10110EB80054FEA810444EA90747C
:100A000044EB01046D1944EB0404521BA3414FF065
:100A1000000348BF0A3200D530BD401C41F100013F
:100A200030BD2DE9F0470D4699469246044600F147
:100A300024080168880604D5E06921F010012160CE
:100A400000E00120A84201DD471B00E00027A1696A
:100A50007A1902EB0900081AA0612078C00602D4B6
:100A60002046FFF7DEFC002608E0D4E901211AF851
:100A700006009047206A401C761C20624E45F4DB3D
:100A80002078C0060AD52046FFF7CBFC06E0D4E963
:100A9000012130209047206A401C2062381EA7F1B7
:100AA0000107F4DC07E0D4E9012118F805009047BC
:100AB000206A401C2062281EA5F10105F3DC2046B7
:100AC000FFF7C5FC2078000602D50220BDE8F087BC
:100AD0000120FBE770472DE9FF4F0C461E464FF003
:100AE000FF378BB0D2E90001DDF860800A908A46BA
:100AF000C1F30A5505B93D46002108464FF00000F4
:100B0000BAF1000F00F4400005DA00EB80004FF46A
:100B1000400101EA50004FEA9059B9F1010F00DDA0
:100B2000B9460A9850EA4A000ED044F61050A5F291
:100B3000FF3545432F14B8F1000F1ED07542291E12
:100B40001EDDC9F100021CE0B8F1010F4FF00000FA
:100B500001D0302103E0F24305E02154401CB042B3
:100B6000FBDB30460022002121540B99C1F808809C
:100B7000C1E900200FB0BDE8F08FBD1B6D1CDEE7A2
:100B80004A4600DA694206A800F0F0FB06AB93E89B
:100B9000070003AB83E8070050460A9900F0ADFC5C
:100BA0008DE80700A0F500501F3800900398002D35
:100BB0000ADD42F21F014A460844002303A90390BC
:100BC000684600F016FF09E0A0F500504A461F38BD
:100BD000002303A90390684600F020FF8DE807007A
:100BE0000004000C03D04FF0FF30410800E0104635
:100BF000B8F1000F03D00022009215461EE0751ECA
:100C000005D4FFF7C9FE303262556D1EF9D5B346E3
:100C10000122084302D000227F1C04E02078302803
:100C200001D100227F1E002A099784D01DE0112DDA
:100C300007DAFFF7B1FE303262556D1C50EA01024F
:100C4000F5D1084302D00098C8B10EE00021681E1B
:100C500005E0235C625C63542254401E491C8142BF
:100C6000F7DBAB46A81B401E0990002004F80B00E0
:100C70000B98099AC0F80880C0E9002B7AE7112682
:100C80004FF0000857E72DE9F04F88460446D21D83
:100C900022F0070191B0D1E90001CDE90A0104F089
:100CA000A5FC02460B98C00F01D02D2007E020685C
:100CB000810701D52B2002E0202101EAC000032A90
:100CC000099001D0072A05DB03464146204600F083
:100CD0000DFB0BE12078800601D5E06900E00620DD
:100CE000B8F1650F814606D0B8F1660F18D0B8F19B
:100CF000670F70D131E00020B9F1110F009001DBD6
:100D0000112301E009F101030AAA01A90CA8FFF7C8
:100D1000E2FEDDE90C70002609F10105834647E09B
:100D200001204B4600904FF000470AAA01A90CA8E9
:100D3000FFF7D1FEDDE90DB00C995D46002610B934
:100D400009F101000D18B9EB050003D4C0F1FF361D
:100D500009F10105A5EB09002BE0B9F1010F01DA5A
:100D60004FF001090020B9F1110F0090484601DD54
:100D7000112300E003460AAA01A90CA8FFF7ABFE65
:100D8000DDE90C704D4600268346207800070AD422
:100D9000AB4500DA5D4601A8012D04DD411911F8CB
:100DA000011C302907D04F4502DA17F1040F04DA8D
:100DB000012082460FE06D1EEEE7002F02DCED1BE6
:100DC0003E4403E0781CA84200DD7D1CB81B00F106
:100DD000010A4FF000472078000703D4AA4501DB41
:100DE0004FF0FF3A0021B7F1004F0DF143088DF8A5
:100DF000431024D002202B23002F01DA7F422D2321
:100E00000A21021EA0F1010000DC5FB197FBF1FC9A
:100E100097FBF1F201FB1C7C17460CF1300C08F833
:100E200001CDEEE7A8F1010003702188090501D585
:100E3000452100E06521A0F1010800F8011C099896
:100E40000FA9A1EB0807FF1D00B10120411901EB1B
:100E5000EA70A1693844081A401EA0612078C006D3
:100E600002D42046FFF7DDFA099828B1D4E9012120
:100E70009047206A401C20622078C00622D5204678
:100E8000FFF7CFFA1EE0002E04DBB34502DD01A818
:100E9000805D00E03020D4E901219047206A401CA9
:100EA0002062761CAAF101005FEA000A0AD100F074
:100EB00019FAC0680168405CD4E901219047206AB2
:100EC000401C2062281EA5F10105DCDC07E0D4E906
:100ED000012118F8010B9047206A401C2062381E3F
:100EE000A7F10107F3DC2046FFF7B1FA032011B0A8
:100EF00041E600002DE9F04F04460D46D21D22F0D8
:100F0000070089B0D0E900974846394604F06EFBE7
:100F10000246F80F01D02D2307E02068810701D594
:100F20002B2302E0202101EAC0038DF820300BB111
:100F3000012000E00020032A824601D0072A04DBBA
:100F40002946204600F0D2F93FE12078800601D4FE
:100F50000D2500E0E569C7F30A560D2D49DA002199
:100F60004FEA175B08464FF00000002F00F44000E6
:100F700007DA00EB80004FF4400100EBD07001EA8B
:100F800060008115012901DD4FF0FF3100224FEA99
:100F9000850CBCF1180F06D31346ACF118004FF0C6
:100FA0008052C24003E04FF4801323FA0CF30CF19B
:100FB0000C0CBCF1200F04D3ACF1200C09FA0CF09E
:100FC00001E007FA0CF000294FF0004801DD18B9E4
:100FD0000FE00ED140450CD319EB02095F4121B956
:100FE000404502D19F4329EA0209BBEB175F00D0BD
:100FF000761C2088000502D57B48784402E07A48B8
:101000007844193808AA302302F80A30037C0AF120
:101010000101002E0AF1020A53546A4602DC4FF025
:10102000300101E04FF031014FF001088DF8001060
:1010300002D0A6F2FF3603E059EA470100D06B4E1A
:10104000002D02DC2178090704D54FF002082E217B
:101050008DF80110C44600210BE0C7F303433F01A4
:10106000C35C491C6D1E02F80830052908F101080F
:1010700001DA002DF1DC00210CE000EB1973491CB2
:101080001B786D1E082902F808304FEA091908F18B
:10109000010801DA002DF0DC21688B0602D516E08C
:1010A000A8F10108E04505DD02EB080313F8013C57
:1010B000302BF5D0B8F1000F09DD02EB080313F86F
:1010C000013C2E2B03D1090701D4A8F10108002D02
:1010D00005DD3E2102F808106D1E08F10108407C74
:1010E000002E02F8080008F1010804DA2D207642EB
:1010F00002F8080002E02B2002F808000A214FF451
:101100007A70864208F101080BDB96FBF0F330336E
:1011100002F8083096FBF0F308F1010800FB1366B3
:1011200001E0642E0CDB642096FBF0F3303302F810
:10113000083096FBF0F308F1010800FB136601E0AC
:101140000A2E06DB96FBF1F0303002F8080008F1B9
:10115000010896FBF1F001FB1060303002F8080046
:10116000A16908F1010808EB050202EB0A00081A60
:10117000A0612078C00602D42046FFF752F9216A08
:1011800008AE01EB0A00206204E0D4E9012116F860
:10119000010B9047BAF1010AF7D22078C00602D5B8
:1011A0002046FFF73EF96E4609E016F8010B3E288F
:1011B0000FD0D4E901219047206A401C2062B8F189
:1011C0000108F2D22046FFF742F909B00320BDE83A
:1011D000F08F206A2844206203E0D4E90121302006
:1011E00090476D1EEBD3F8E77A48000002FCFFFF42
:1011F00010B5436913B1AFF3008001E0FFF74AF97E
:10120000012010BD127800F124010A7000224A70FA
:101210000122EDE711684FF0FF32E9E710B54369AD
:1012200013B1AFF3008001E0FFF7D4F9012010BD46
:10123000128800F1240182840022C2840122EDE799
:1012400011684FF0FF32E9E770B516460C460546C7
:1012500000F040F8036893F80101012806D0FF2C44
:101260000FD8185D68B101202C7070BDD3F807014C
:101270003246214603F2071303442846BDE8704076
:1012800018474FF0FF3070BD754600F0EBF8AE46E2
:1012900005006946534620F00700854618B020B582
:1012A000FFF728F8BDE820404FF000064FF0000798
:1012B0004FF000084FF0000B21F00701AC46ACE8FE
:1012C000C009ACE8C009ACE8C009ACE8C0098D466B
:1012D0007047000010B500F005F8001D10BD00BFFC
:1012E000ED44000000487047843D00202DE9F041A6
:1012F0001F46044603260168072A01F4006004DB48
:1013000008B116A505E016A503E008B115A500E093
:1013100015A521F010002060A069C01EA0610FB1CA
:10132000401EA0612046FFF77CF84FB1D4E90121AF
:1013300038469047206A401C2062C01C206206E0AC
:10134000206AFAE7D4E9012115F8010B9047761ECF
:10135000F8D22046FFF77BF8BDE8F0814E414E0001
:101360006E616E00494E4600696E66002DE9F047D9
:10137000814616468AB0354878440DC88DE80D0080
:1013800032487844801C03AC0DC884E80D0041F657
:101390009B300844372190FBF1F290FBF1F5A5F169
:1013A000800501FB12041B3C02D56442012000E0D1
:1013B0000020DFF898A080460027FA44AAF1BE0A70
:1013C0000EE0E0070AD03246684607EB47010123EA
:1013D0000AEB810100F022FB8DE8070064107F1CFE
:1013E000002CEED1194F7F44AE3F19E0E80715D02D
:1013F00007EB04100DF1180A90E80E008AE80E00C1
:10140000C068F04201D1981908903246012306A91C
:1014100003A800F003FB03AB83E807006D10641C16
:10142000002DE3D14FF0010332466946B8F1000FB9
:1014300003A802D000F0DDFA01E000F0EFFAC9E9FC
:101440000001C9F808200AB0BDE8F0878C4500000B
:1014500010B50446AFF300802046BDE81040FEF70B
:1014600002BF000000487047643D00204FF0013C7F
:1014700050F8042B51F8043B9A4221D1A2EB0C0303
:10148000934313EACC1317D150F8042B51F8043BC3
:101490009A4215D1A2EB0C03934313EACC130BD160
:1014A00050F8042B51F8043B9A4209D1A2EB0C03EB
:1014B000934313EACC13DBD04FF00000704700BF1A
:1014C000D01A01BAB1FA81F101F0180122FA01F043
:1014D000CB40C1F12001DBB2C0B2C01A2CFA01F33B
:1014E000D11A914311EAC311E6D17047014918207E
:1014F000ABBEFEE72600020070475FEA400C08BF63
:1015000091F0000F4FEA8C234FEAC12243EA515178
:101510004FEA1C5018BF00F5F0404FEA300018BFEA
:1015200041F000415FEA6C5C00F02980BCF1FF3FB4
:1015300008BF40F080407047130C06BF12044FF004
:10154000100C4FF0000C130E04BF12020CF1080C2B
:10155000130F04BF12010CF1040C930F04BF92008F
:101560000CF1020CD30F04BF52000CF1010C114618
:101570004FF00002A0F11F00A0EB0C00704711F02B
:10158000004F08BF704731F000413FF4D5AF0B0C5E
:1015900006BF09044FF0100C4FF0000C0B0E04BFF7
:1015A00009020CF1080C0B0F04BF09010CF1040C2B
:1015B0008B0F04BF89000CF1020CCB0F04BF490054
:1015C0000CF1010CCCF12003A0EB0C0022FA03F388
:1015D00002FA0CF241EA030100F10100704720F029
:1015E0007F4C80EA030023F07F47ACEB070303F551
:1015F0007C5300F0004003F1FF032DE980494FEADE
:10160000154B09B44FEA144325EA0B4E24EA03486C
:101610000FF2042606EB132749083E785FEA3202F0
:1016200003FB0667C7F5000707FB06F64FEA5437CA
:101630004FEAD64606F1020607FB066CCCF1005CC9
:101640004FEA1C472CEA074C07FB06F40CFB06F597
:1016500004EB15464FEA961634BF00204FF00040C9
:101660004FEAD13706FB07FC4FEA1C4C0CFB0BF78B
:10167000D21B03FB0CF761EB07010CFB0EF7B0EB81
:10168000074072EB17420CFB08F734BFA2EB07428E
:10169000B2EB074261EB17414FEA0C444FEA910766
:1016A00006FB07FC4FEA1C4C0CFB0BF7B0EBC740EA
:1016B00072EB573203FB0CF734BFA2EBC742B2EB1D
:1016C000C74261EB57310CFB0EF7B0EBC70072EB72
:1016D00057720CFB08F734BFA2EBC702B2EBC7028C
:1016E00061EB5771039F4FEA816141EA921104EB6C
:1016F000CC044FEAD1374FEA826206FB07FC42EA8C
:1017000090124FEA80604FEA1C4C0CFB0BF7D21B87
:1017100003FB0CF761EB07010CFB0EF7B0EB074086
:1017200072EB17420CFB08F734BFA2EB0742B2EB97
:10173000074261EB17414FEA8C554FEA910704EBE2
:101740009C2406FB07FC4FEA1C4C0CFB0BF7B0EB90
:10175000C74072EB573203FB0CF734BFA2EBC74212
:10176000B2EBC74261EB57310CFB0EF7B0EBC70091
:1017700072EB57720CFB08F734BFA2EBC702B2EB57
:10178000C70261EB577115EB4C254FEA816141EAC5
:1017900092114FEA82624FEAD13742EA901206FB79
:1017A00007FC44F100044FEA80604FEA1C4C0CFB3C
:1017B0000BF7D21B03FB0CF761EB07010CFB0EF7D9
:1017C000B0EB074072EB17420CFB08F734BFA2EBFB
:1017D0000742B2EB074261EB174115EB1C154FEACC
:1017E000813141EA92414FEA823242EA90424FEA25
:1017F00080304FEA0C7644F1000448EA03434EEA95
:101800000B484FF0000EB2EB080C71EB030724BF3E
:10181000624639464EEB0E0E4FF0000B0018524157
:1018200049414BEB0B0BB2EB080C71EB03077BF15F
:10183000000B24BF624639464EEB0E0E4FF0000BF4
:101840000018524149414BEB0B0BB2EB080C71EB0A
:1018500003077BF1000B24BF624639464EEB0E0EA8
:1018600051EA020718BF46F0010616EB0E7655F155
:10187000000254F1000103D5BDE88901BDE80088EC
:10188000BDE88901BDE80048B619524141EB0101AC
:10189000A3F10103704780807F7E7D7C7B7A79781D
:1018A000777676757473727171706F6E6E6D6C6C25
:1018B0006B6A6A69686867666665646463636261C7
:1018C0006160605F5F5E5E5D5D5C5C5B5B5A5A5948
:1018D00059585857575656555555545453535252B4
:1018E0005251515050504F4F4F4E4E4D4D4D4C4C0C
:1018F0004C4B4B4B4A4A4A49494948484847474755
:101900004746464645454544444444434343434291
:10191000424242414141002B9C4630D477002BD0BB
:101920001CB54FEA370703B44FF010004FF0100119
:10193000BAF1000F06D0BCF1000FDCBF40F0080088
:1019400040F008014FF000000FBCBDE810400BF163
:10195000010BBBF1010F08BF5FEA170722BF12F1AD
:10196000010211F101014FF0004143F1000300F0C9
:10197000004043EA00007047F9D35708D0E746EA31
:10198000064613F1400F4FEA16461FDD13F1200FF4
:10199000DFBF16430A46002120335B42BED0C3F1AD
:1019A000200746EA064602FA07F74FEA164646EAD5
:1019B0000706C3F1200722FA03F201FA07F721FA1A
:1019C00003F14FF0000342EA0702A7E746EA0206E6
:1019D00046EA06464FEA164646EA0106BCBF46EA14
:1019E0000646360C4FF000034FF000024FF00001A6
:1019F00094E72DE9804C9A46934670B491E83800FC
:101A000007C831EA400C48BF34EA430C03D5FFF75E
:101A1000E6FDFFF780FFF0BCBDE8008C2DE9804CAF
:101A20009A46934670B491E8380007C810F0804F8A
:101A300008BF13F0804F03D100F005F8FFF76BFFEC
:101A4000F0BCBDE8008C20F07F4780EA030023F063
:101A50007F4C07EB0C03A3F57C5300F00040A3F18F
:101A6000FE0392F0000F00F0B38095F0000F00F03D
:101A700077802DE901494FEA11404FEA144621EAE7
:101A8000004800FB06FC24EA064708FB06F607FBB5
:101A900008F800FB07F718EB06484CEB164C4FEA2A
:101AA000124B18EB07484FEA15464CEB174022EA59
:101AB0000B4E0BFB06FC25EA06470EFB06F607FB62
:101AC0000EFE0BFB07F71EEB064E4CEB164C4FF0D1
:101AD00000061EEB074E4CEB174B18EB0B0840F1C2
:101AE000000018EB0E0B58EB000840F100008F1AB5
:101AF0004FF000013CBFC943661B14BFB5EB040C9B
:101B000000213CBFC943F61B4FEA17444EEA8E0E34
:101B100027EA04454FEA1C4704FB07622CEA074CFE
:101B200005FB07F70CFB05F604FB0CFC16EB074660
:101B300042EB174216EB0C4642EB1C421BEB06062F
:101B400058EB0202414146EA9E0601D5BDE80189F3
:101B5000B619524141EB0101A3F10103BDE801892E
:101B60004FEA14454FEA114724EA054621EA074C9B
:101B700005FB07F406FB07F70CFB06F105FB0CFC65
:101B800011EB074144EB17444FEA124711EB0C41AC
:101B900044EB1C4422EA074C05FB07F206FB07F75F
:101BA0000CFB06F605FB0CFC16EB074642EB174256
:101BB00016EB0C4642EB1C456A1854F1000148BF75
:101BC0007047B619524141EB0101A3F1010370477F
:101BD00095F0000F37D04FEA11424FEA144721EA3F
:101BE000024624EA074C02FB07F106FB07F70CFB51
:101BF00006F402FB0CFC14EB074441EB17414FEADF
:101C0000154714EB0C4441EB1C4125EA074C02FB41
:101C100007F506FB07F70CFB06F602FB0CFC16EBC0
:101C2000074645EB174516EB0C4645EB1C421219CF
:101C300051F1000148BF7047B619524141EB010113
:101C4000A3F1010370474FEA14454FEA114724EA14
:101C5000054621EA074C05FB07F106FB07F70CFBDD
:101C600006F24FF0000605FB0CFC12EB074241EBBD
:101C7000174112EB0C4251EB1C4148BF70479218C0
:101C800041EB0101A3F101037047FEE710B5042801
:101C90000ADD202808D0212806D0222804D18878FF
:101CA00000F0010003F0E6F8002010BD00207047AE
:101CB00010B500220449054802F018F90449034808
:101CC00002F00EF9002010BD602900209C200020A9
:101CD000602500200448D0F8B80218B1D0F81402EA
:101CE000002800D0012070479C20002010B5096812
:101CF00003F05CF80449054802F0F2F8034802F0EA
:101D0000D3F8002010BD0000602500209C2000209A
:101D1000094A10B5D2F8B822D2F814220AB101202B
:101D200010BD0A460146044802F0E0F8BDE8104044
:101D3000014802F039B900009C20002070470000E3
:101D400000224021014800F010B8000000080140C6
:101D500001224021014800F008B8000000080140BD
:101D600072B6FEE7704700F0F5B802B1012200F04C
:101D7000FEB800002DE9F84FDFF8B8910024A9F172
:101D8000040B23460F2709F1040AABF1040EC9E046
:101D90000125A5402A40AA427DD1674ED1F804C052
:101DA000ACEB0608B44532D014DCBCF1030F3AD0DA
:101DB00009DCBCF1000F2AD0BCF1010F1CD0BCF132
:101DC000020F31D11DE0BCF1110F17D0BCF1120F81
:101DD0002AD119E0B8F5881F19D006DCB8F5803F84
:101DE00015D0B8F5801F1FD111E0B8F5001F0ED037
:101DF000B8F5041F18D10AE0CB6815E0CB681B1DAD
:101E000012E0CB6808330FE0CB680C330CE08B6832
:101E10002BB1012B4FF0080303D0456104E00423EC
:101E200002E0056100E00023FF2A01D8064601E038
:101E300000F104064FEA840501D9A5F12005D6F882
:101E4000008007FA05FC28EA0C0803FA05F548EAC1
:101E50000508C6F800804D68ED0062D5374DAE69C3
:101E600046F00106AE61AD6924F0030605F00105F8
:101E70000095334D06EB050CDCF80850A607360F2D
:101E800007FA06F825EA0805DFF8B880404503D1CF
:101E90004FF0000817E044E0DFF8AC80404502D185
:101EA0004FF001080FE0DFF8A480404502D14FF069
:101EB000020808E0DFF89880404502D14FF003089F
:101EC00001E04FF0040808FA06F848EA0508CCF8E3
:101ED00008804D68D9F80060ED024D4601D51643E3
:101EE00000E096432E604D68DAF80060AD0255467A
:101EF00001D5164300E096432E604D68DBF8006084
:101F0000AD035D4601D5164300E096432E604D6853
:101F1000DEF80060ED03754601D5164300E09643F8
:101F20002E60641C0D682A46E5407FF431AFBDE8A1
:101F3000F88F00000804014000001110001002405A
:101F40000000014000080140000C01400010014069
:101F5000001401408068084000D001207047C2682A
:101F600021EA02030A4043EA0241016170470AB1D3
:101F7000016170470904FBE7014880687047000071
:101F80006400002002488168027811448160704733
:101F900064000020074810B5016841F0100101609D
:101FA000032000F07BF8022000F006F800F024F88F
:101FB000002010BD0020024070B50D4D04464FF4C6
:101FC0007A712878B1FBF0F00A490968B1FBF0F0AA
:101FD00000F0DCFF48B9102C07D200222146501E29
:101FE00000F03CF800206C6070BD012070BD000066
:101FF00064000020700000200F4808B5816941F09E
:1020000001018161816901F001010091C16941F023
:102010008051C161C069002200F0805000900F2102
:10202000901E00F01BF80548416821F0E06141F086
:102030008061416008BD00000010024000000140C6
:10204000002809DB00F01F020121914040098000B7
:1020500000F1E020C0F8001170470000F0B40E4B12
:102060001B680C46C3F30223C3F10705042D00D9F6
:102070000425191D072901D2002300E0DB1E0126DB
:1020800006FA05F1491E214099409E40761E1640F1
:102090003143F0BC03F0BEBA0CED00E0064900F09D
:1020A000070208684FF6FF03184040EA0220034A7F
:1020B00010430860704700000CED00E00000FA05D6
:1020C00010B50C0607D501F0070101EB810100EB0B
:1020D000C100103005E001EB810100EBC10000F50B
:1020E000A87099B232B1012202730181190C4181A9
:1020F000002010BD00220273C180F9E7704701EB98
:10210000810200EBC202D0F8D402526A02F0FBB89E
:1021100001EB810200EBC202D0F8D402D2F86421B4
:1021200002F054B970B504460B0601F0070000EB4D
:10213000800104EBC1014FF001024FF0000502D510
:102140004A74103103E081F8515101F5A87108700B
:1021500094F89002012808D084F89022206802F0B8
:102160009DFE84F89052002070BD022070BD70B5B5
:10217000044601F00F002279904201D9012070BD80
:102180000B0601F0070000EB800104EBC1014FF0EA
:1021900001024FF0000502D54A74103103E081F8C6
:1021A000515101F5A8718D70087094F890020128C2
:1021B00008D084F89022206802F00DFF84F8905235
:1021C000002070BD022070BD2DE9F05F04685FEA59
:1021D000424C0B788D69B4F850C04FF000064BF6B6
:1021E0008F7948F2800A48F68F7B48F2C00E4FF490
:1021F00080672AD54FF0020808EBC308C44407EBF8
:102200004C07E45BC4F30904A54203D32D1B8D6185
:1022100001D00BE08E61066836F8235005EA090507
:1022200085F4005545EA0A0526F82350520609D5DB
:102230000D78036833F8252002EA0B0242EA0E0209
:1022400023F8252084B30A8929E04FF0060808EB1B
:10225000C308C44407EB4C07E45BC4F30904A5427C
:1022600003D32D1B8D6101D00BE08E61066836F81B
:10227000235005EA090585F4005545EA0A0526F8C4
:102280002350520609D40B78056835F8232002EA5A
:102290000B0242EA0E0225F823202CB14A89496933
:1022A0000068234603F070F92046BDE8F09F2DE951
:1022B000F05F054600680C465FEA426C16468B6983
:1022C0002278B0F850C048F68F774CF280094FF46E
:1022D000004B4FF6FF7E4FF4806A4FF0000172D53D
:1022E0004FF0020808EBC208E0440AEB480C30F853
:1022F0000C00C0F30900834211D91B1AA3610FD04F
:10230000730407D52E6836F822303B4043EA0903B0
:1023100026F8223094F82420012A47D052E1A16106
:10232000607810B1012813D01AE02868B0F8503056
:10233000184400EB0210B0F80424C2F30902A0F81C
:102340000424B0F8042442F40042A0F8042407E076
:102350002868B0F85030184400EB0210A0F80414BC
:102360006278286812B1012A11D018E0B0F8501034
:102370000844217800EB0110B0F80C14C1F30901F6
:10238000A0F80C14B0F80C1441F4004105E0B0F8CA
:1023900050201044227800EB0210A0F80C14217891
:1023A0002846FFF7ACFE700472D40BE16269024468
:1023B0006261E2690244E2612369226A9A4203D3BC
:1023C0001846111A04E03EE084F824100AB11046C1
:1023D0002162617811B1012929D031E02968B1F871
:1023E00050201144227801EB0211B1F80424C2F309
:1023F0000902A1F8042401F204413E2807D9420948
:10240000C30600D1521E0B884BEA822207E048B176
:102410004208C30700D0521C0B880EEA82221343E5
:102420000B800DE00A8842F400420A8008E0296827
:10243000B1F850201144227801EB0211A1F80404F4
:1024400083B22289BAE04FF0060808EBC208E044E4
:102450000AEB480C30F80C00C0F30900834211D39A
:102460001B1AA3610FD0730407D42E6836F82230EC
:102470003B4043EA090326F8223094F82420012A3D
:1024800051D09FE0A161607818B1012814D01BE001
:102490003FE02868B0F85030184400EB0210B0F864
:1024A0000424C2F30902A0F80424B0F8042442F47E
:1024B0000042A0F8042407E02868B0F8503018441F
:1024C00000EB0210A0F804146278286812B1012A07
:1024D00011D018E0B0F850100844217800EB01103A
:1024E000B0F80C14C1F30901A0F80C14B0F80C14E6
:1024F00041F4004105E0B0F850201044227800EB90
:102500000210A0F80C1421782846FFF7F8FD70049B
:1025100058D42278296831F82200384040EA09006E
:1025200021F822004EE0626902446261E2690244DD
:10253000E2612369226A9A4203D31846111A216282
:1025400004E00AB11046216284F8241062782968F8
:1025500012B1012A28D02FE0B1F85020114422787E
:1025600001EB0211B1F80C24C2F30902A1F80C240A
:1025700001F20C413E2807D94209C30600D1521E80
:102580000B884BEA822207E048B14208C30700D01B
:10259000521C0B880EEA822213430B800CE00A883F
:1025A00042F400420A8007E0B1F85020114422783A
:1025B00001EB0211A1F80C04628983B261692868F9
:1025C00003F000F82278296831F8220048F6BF733A
:1025D000184080F0300048F28003184321F82200B0
:1025E0000020BDE8F09F01F0070101EB810100EB45
:1025F000C100D0F86C0170472DE9F04104460F0688
:1026000001F0070000EB800104EBC1014FF001066F
:102610004FF0000502D54E74103103E081F851519E
:1026200001F5A871022B08700A61CB7000D10D7101
:1026300094F89002012809D084F89062206802F092
:10264000D5F9284684F89052BDE8F0810220FBE7D6
:1026500010B501F0070404EB840100EBC101C1E9EE
:1026600059230022C1F86C2181F8512181F8504191
:10267000006801F5A87102F003FD002010BD70B5DF
:1026800004460D4601F007002179884201D9012056
:1026900070BD29064FF000064FF0010206D500EB91
:1026A000800104EBC1014A74103107E005EB85019C
:1026B00004EBC10181F8516101F5A8718A700870BD
:1026C00094F89002012807D084F89022206802F044
:1026D000BEFC680702D006E0022070BD04F526713A
:1026E000206802F076FC84F89062002070BD10B57E
:1026F00001F0070404EB840100EBC101C1E90923E7
:10270000012281F834200B630023CB624A7401F864
:10271000104F006802F0B4FC002010BD1FB5044645
:10272000006802F02DFF010403D5204600F010FFE1
:102730001FBD41050DD5206830F8441F21F480618C
:102740000180204600F000F90021204600F017F932
:102750001FBD410405D5206830F8441F21F4804195
:1027600074E0810405D5206830F8441F21F400513D
:102770006CE0C10414D5206830F8401F21F004013A
:102780000180206830F8401F21F0080101802046B8
:1027900000F0EDF8206830F8441F21F4805155E036
:1027A000010540D5D4F800200020694632F82030D9
:1027B00021F81030401CC0B20828F7D332F8400F7F
:1027C00040F001001080206830F8402F22F0010214
:1027D00002802068B0F844205205FBD530F8442F21
:1027E00022F4806202800020236831F8102023F850
:1027F0002020401CC0B20828F6D3206830F8401FC3
:1028000041F008010180206830F8441F21F4006184
:102810000180206830F8401F41F00401018020460B
:1028200000F0E0F81FBD810509D5206830F8441F8D
:1028300021F400710180204600F09DF81FBDC00505
:10284000FCD5206830F8441F21F4807101801FBD41
:102850002DE9F041040004D094F89102002518B14C
:1028600007E00120BDE8F08184F89052204600F096
:102870004DF8032084F891026571206802F0A2FBF4
:1028800094E80F0002F008FB022698BB00212068A4
:1028900002F090FE70BB002001270BE000EB8001EE
:1028A00004EBC1014F740874CD740D624D62401C7D
:1028B000C0B28D6221798142F0D8002012E000BFC1
:1028C00000EB800104EBC10181F8515181F8500106
:1028D00081F85351C1F86051C1F86451401CC0B235
:1028E000C1F8685121798142EAD894E80F0002F0DA
:1028F00060FB10B184F89162B3E7657384F891725C
:10290000206802F054FB0020ACE7000008B5006826
:102910000B49884212D10B48C16941F40001C161E1
:10292000C069002200F40000009001211420FFF78C
:1029300095FBBDE808401420FFF782BB08BD0000EE
:10294000005C00400010024070B50446807901250B
:10295000022801D0FFF704FA2946D4F8D40201F086
:102960001DFED4F8D402BDE8704001F0D9BDD0F806
:10297000D40201F0FDBDD0F8D40201F003BE10B5C1
:10298000044690F8900201280AD0012084F89002B1
:102990006173206802F010FE002084F8900210BDE0
:1029A000022010BDD0F8D42200F52671104601F0A7
:1029B00001BE10B5044690F89002012810D0012005
:1029C00084F89002206802F0CCFD01212046FFF738
:1029D00095FB206802F0E9FA002084F8900210BD0F
:1029E000022010BD10B50446D0F8D40201F021FE3B
:1029F000A07A002804D00348016841F00601016074
:102A000010BD000010ED00E02DE9F8430546007808
:102A1000354CC00754D0E0690026C00008D4E069F6
:102A200040F08050E061E069012600F080500090A5
:102A30002E480168C90512D40168804641F48071AE
:102A40000160FFF799FA074605E000BFFFF794FA27
:102A5000C01B642823D8D8F80000C005F6D5206A2A
:102A600010F4407021D0A98801F4407181421CD03B
:102A7000206A1F49012220F440700A6000220A6087
:102A80002062C00711D0FFF777FA074641F2883875
:102A900008E000BFFFF770FAC11B414502D90320CF
:102AA000BDE8F883206A8007F4D5206A696820F4BD
:102AB0004070084320621EB1E06920F08050E06160
:102AC0002878800705D56068A96820F4404008434D
:102AD00060602878C00605D56068E96820F4800049
:102AE000084360600020DBE70010024000700040F7
:102AF000400442422DE9F0470F46050061D0434EA5
:102B0000306800F00700B84209D2306820F00700B2
:102B100038433060306800F00700B84251D128686F
:102B20003B4C810712D5400703D5606840F4E06054
:102B300060602878000703D5606840F460506060EA
:102B40006068A96820F0F000084360602878C0073A
:102B500028D06868012810D02168022810D0890781
:102B600000292EDA616821F0030101436160FFF75B
:102B700003FA804641F288390DE021688903EFE7C6
:102B80008901EDE7FFF7F8F9A0EB0801494502D903
:102B90000320BDE8F0876068696800F00C00B0EBC6
:102BA000810FEFD1306800F00700B8420BD93068D0
:102BB00020F0070038433060306800F00700B8426A
:102BC00001D00120E5E72878400705D56068E9686D
:102BD00020F4E060084360602878000706D560684C
:102BE000296920F4605040EAC100606000F018F8E4
:102BF0006168084AC1F30311515CC8400649086086
:102C000006480068FFF7D8F90020C2E7002002401C
:102C100000100240125800087000002068000020D8
:102C20000E4A51680E4801F00C03042B11D0082BFA
:102C30000FD10C48C1F38343C903C05C0AD5516866
:102C4000084AC1F34041921E515C054A5043B0FB13
:102C5000F1F07047044948437047000000100240FB
:102C600000127A000258000800093D002DE9F84FD3
:102C7000040070D02078C04DC00749D06868C0F308
:102C80008100012807D06868C0F38100022809D1BB
:102C90006868C00306D52868800339D560680028B5
:102CA000E7D035E06068B0F5803F0BD010B1B0F5EB
:102CB000A02F11D0286820F480302860286820F4E4
:102CC000802002E0286840F480302860606890B17D
:102CD000FFF752F906460AE0286840F48020286091
:102CE000F0E700BFFFF748F9801B642873D8286815
:102CF0008003F7D50CE0FFF73FF9064605E000BF7B
:102D0000FFF73AF9801B6428F0D828688003F7D4CD
:102D100020789A4E80074FF001094FF0000839D50E
:102D2000686810F00C0F07D06868C0F381000228B3
:102D300009D16868C00306D42868800714D52069C3
:102D4000012808D110E02069B0B1C6F80090FFF763
:102D500013F9074605E00AE1FFF70EF9C01B022848
:102D6000C4D828688007F7D52868616920F0F80082
:102D700040EAC10028600DE0C6F80080FFF7FCF8CB
:102D8000074604E0FFF7F8F8C01B022823D828689C
:102D90008007F7D4207800072CD57948A169D9B1EC
:102DA000C0F80090FFF7E8F8074604E0FFF7E4F802
:102DB000C01B02280FD8686A8007F7D571484FF406
:102DC000FA510068B0FBF1F0009000BF0098411E7E
:102DD0000091FAD20EE080E0C0F80080FFF7CCF856
:102DE000074604E0FFF7C8F8C01B022875D8686AD8
:102DF0008007F7D42078400760D5E8690027C00035
:102E000008D4E86940F08050E861E869012700F0E3
:102E1000805000905C480168C90513D4016883465E
:102E200041F480710160FFF7A7F8824606E000BF19
:102E3000FFF7A2F8A0EB0A0064284ED8DBF80000E8
:102E4000C005F5D5E06801280AD008B1052813D0DF
:102E5000286A20F001002862286A20F0040002E0BD
:102E6000286A40F001002862E06841F2883B98B18E
:102E7000FFF782F882460BE0286A40F004002862DF
:102E8000EEE700BFFFF778F8A0EB0A0159455AD8E2
:102E9000286A8007F6D50CE0FFF76EF8824605E059
:102EA000FFF76AF8A0EB0A0159454CD8286A800759
:102EB000F6D41FB1E86920F08050E861E06988B37A
:102EC0006968C1F38101022944D00228C6F86080F4
:102ED00004D0FFF751F8044638E034E0FFF74CF82F
:102EE000074604E0FFF748F8C01B02282BD82868E3
:102EF0008001F7D4206AB0F5803F05D16868A168E9
:102F000020F4003008436860D4E908010843696888
:102F100021F4741108436860C6F86090FFF72CF83C
:102F2000044606E025E000BFFFF726F8001B022854
:102F300009D828688001F7D51BE000BFFFF71CF80F
:102F4000001B022802D90320BDE8F88F2868800101
:102F5000F4D40EE00128F7D06868226A00F48031CA
:102F6000914204D1616A00F47010884201D00120BE
:102F7000EAE70020E8E700000010024000004242BB
:102F800080044242700000200070004010B5401ED6
:102F9000B0F1807F01D3012010BD4FF0E0246061CB
:102FA0000F21601702F036FB0020A061072020618E
:102FB000002010BDFEE70000F0B500230A243025F4
:102FC00037261F4611E000BFB4EB107F02D905EB96
:102FD000107C01E006EB107C01F813C001EB430C00
:102FE00000015B1C8CF80170DBB29342ECD3F0BDA6
:102FF0004FF400510148FEF7B2BF0000001001403D
:103000002DE9F04186B000242848009401940294F0
:103010000394816941F010018161816901F010011F
:103020000491816941F020018161816901F02001F1
:103030000491816941F00401816180691C4F00F0B5
:1030400004004FF400550490002229463846FEF74C
:103050008EFFDFF8608000227A214046FEF787FF6E
:103060000095022601250396CDE9015469463846AC
:10307000FEF780FECDE90054694640460295FEF712
:1030800079FE7A20CDE90005CDE902466946404641
:10309000FEF770FE0420CDE9000469464046029424
:1030A000FEF768FE06B0BDE8F081000000100240A7
:1030B000001001400008014010B500220F491048DF
:1030C00001F0FAF808B1FEF74BFE0E490C4801F08A
:1030D000D6FA08B1FEF744FE0B49094800F0F8FEA5
:1030E00008B1FEF73DFE064801F01EFB002803D0A4
:1030F000BDE81040FEF734BE10BD00000400002003
:103100009C2000205001002054000020FEE7FEE734
:103110002DE9F0470600DDE90897DDF828A002D088
:103120000AB1402B03D24FF0FF30BDE8F087DFF843
:10313000DC8098F80000082802D36FF00100F4E763
:1031400072B600244FF0A53503E000BF42F82450CA
:10315000641C9C42FAD32E4D00EB400405EB041492
:1031600002EB830525F007054FF0807C45E9026CF2
:10317000DFF8A0C045F80CCC4FF0123C45F810CC5D
:103180004FF0033C45F814CC4FF0023C45F818CC06
:103190004FF0013C45E9081C4FF0113C45F824CCA8
:1031A0004FF0103C45F828CC4FF0093C45F82CCCAA
:1031B0004FF0083C45F830CC4FF0073C45F834CC94
:1031C0004FF0063C45F838CC4FF0053C45F83CCC78
:1031D0004FF0043C45F840CD2560C4E9012320733D
:1031E00084F80D900122A2730022226107B90527FD
:1031F0006761C4E90672C4F82CA02262C4E90961BF
:10320000411C88F8001062B68FE700008C01002096
:10321000B03700209D34000810B560B172B608497F
:103220004A6832B14A68106149680420887300F026
:1032300083F962B610BDBDE8104000F07DB9000012
:103240008C01002030B50E490978884201D3002056
:1032500030BD0C4900EB400001EB00120021084694
:103260004FF0A534936806E0556855F82050A54204
:1032700003D1401C491C8342F6D8880030BD0000B1
:103280008C010020B0370020014800787047000012
:103290008C01002005490978884201D3002070473D
:1032A000034900EB400001EB001070478C01002047
:1032B000B037002006490978884201D300207047C2
:1032C000044900EB400001EB0010006A7047000069
:1032D0008C010020B037002006490978884201D3CC
:1032E00000207047044900EB400001EB0010C0696A
:1032F000704700008C010020B03700200148806832
:10330000704700008C01002070B572B60024184888
:1033100084600470651EC560447044601548214691
:1033200001EB410200EB0212491CC9B29473082957
:10333000F6D30F216FF0010002F07CF90E21284630
:1033400002F078F90C484FF47A710068B0FBF1F1A3
:10335000491EB1F1807F09D24FF0E02671610F2143
:10336000284602F067F9B4610720306162B670BD8B
:103370008C010020B03700207000002010B572B61C
:103380004FF480610948FDF722F820210848FDF735
:103390001EF8074814212030FDF719F804482021B1
:1033A00020300180818062B610BD000030390020DD
:1033B000303D002010B50C4C606830B16068807BF7
:1033C000022802D161680120887300F00FF848B12B
:1033D0000221817341698161C169491CC161A16890
:1033E00001626060606810BD8C010020F0B5204E65
:1033F000FF220020014633781E4C0EE001EB410510
:1034000004EB0515AF7B012F01D0022F03D16D7B9B
:10341000954200D22A46491CC9B29942EED3FF2AEE
:1034200002D00125F7681FE00020F0BD791991FB5B
:10343000F3FC03FB1C11C9B201EB410C04EB0C1CA7
:103440009CF80EE0BEF1010F02D0BEF1020F09D1CF
:103450009CF80DC0944505D101EB410004EB001030
:103460000F4603E06D1CEDB29D42DFD9F760F0BD61
:103470008C010020B037002010B5074C20780028C0
:1034800008D072B601206070FFF794FF606062B6EA
:1034900000DFFEE710BD00008C01002072B6054879
:1034A000416811B140680521817362B600F044F8AB
:1034B000FEE700008C010020F0B41D48417800298F
:1034C00033D08168491C8160002529460378194E54
:1034D00018E000BF01EB410206EB0212947B042CC2
:1034E0000ED1146914B1641E146109D101249473BE
:1034F00044682CB1527B4468647BA24200D201250F
:10350000491CC9B29942E5D3416849B1416889690A
:1035100019B141688A69521E8A614068806908B1A0
:10352000002D02D0F0BC00F007B8F0BC70470000DE
:103530008C010020B037002004494FF08050086013
:10354000BFF34F8FBFF36F8F7047000004ED00E0B3
:103550002DE9F84F044640F68F7B48F60F794FF47B
:1035600080684FF0000ABDE1B0F8441011F00F057B
:1035700039D030F8256031047ED530F8251001EAC5
:103580000B0141F0800120F8251005EB850004EBCC
:10359000C00797F85C0107F5A87700286DD0F87888
:1035A00002286BD03978226832F8210048F68F73F0
:1035B000184048F2C003184322F8210039782068E7
:1035C00030F82120B0F8503052047DD5022202EBB1
:1035D000C1015A1808EB4201415A8905890D009131
:1035E00073D03A89DDE0C9062BD4018801EA0901CC
:1035F00041F400410180206804F11005B0F850301A
:10360000217C022202EBC1015A1808EB4201405A08
:10361000C0F30900E062616A08446062002120464C
:10362000FEF76DFD607B00289DD0A86900289AD127
:10363000607B216840F08000A1F84C0084F80DA068
:1036400050E1018804F5A8750A0521D5B0F850208D
:103650002B78062101EBC3010A4408EB4201405AD2
:1036600004F52671C0F30903EB61EA88206801F0D4
:103670008BFF2068018802E0AEE06EE07EE001EAA8
:103680000B0141F0800101802046FFF78BF929E111
:103690000904D5D5018801EA0B0141F080010180C0
:1036A0002068B0F850202B78062101EBC3010A44B2
:1036B00008EB4201405A83059B0DEB6110D069690C
:1036C00071B1EA88206801E05FE05DE001F05CFF35
:1036D000E96968690844686100212046FEF718FD21
:1036E000216808880205ABD4C0F301300328A7D0B5
:1036F000B1F850000844B0F80C14C1F30901A0F867
:103700000C142A6900F20C403E2A09D95109D2064C
:1037100000D1491E02884FF4004343EA812109E0A9
:10372000B2B15108D20700D0491C02884FF6FF738E
:1037300003EA81210A430280216808884BF68F72D0
:10374000104080F4405048F2800210430880C9E0E5
:10375000018841F400410180EEE72068B0F8502074
:103760003B78062101EBC3010A4408EB4201415AB0
:103770008905890D009118D0FA8812E03246394641
:103780002046FEF721FD00900FE0062202EBC1016A
:103790005A1808EB4201415A8905890D009104D05D
:1037A0007A897969009B01F0EFFEF8690099084475
:1037B000F8617969009808447861B86918B1396985
:1037C0000098814204D939782046FEF7A1FC03E035
:1037D0003946206801F054FC30062ED505EB8500F3
:1037E00004EBC001206830F8252002EA090242F407
:1037F000004220F82520C87C103101281ED0F00599
:103800006CD42068B0F850300D78022202EBC5026B
:103810001A4408EB4202805A8A69C0F309008242C6
:1038200055D9121A8A6154D04A6902444A61CA6958
:103830001044C861206801F023FC53E0C1F818A0CF
:10384000087B524608B3700620D5487810B101288D
:1038500012D03AE02068B0F8502010440A7800EB0B
:103860000210B0F80424C2F30902A0F80424B0F84E
:10387000042442F4004206E02068B0F850301844B6
:103880000B7800EB0310A0F804241EE04B782068AE
:1038900013B1012B11D018E0B0F8502010440A7871
:1038A00000EB0210B0F80C24C2F30902A0F80C24BB
:1038B000B0F80C2442F4004205E0B0F8503018444F
:1038C0000B7800EB0310A0F80C24097802E0C1F893
:1038D00018A0E9B22046FEF712FC03E0324620466B
:1038E000FEF7E5FC2068B0F8441009043FF53CAE53
:1038F0000020BDE8F88F000070B51546094E0C4653
:10390000024608213046FEF730FA224610213046A2
:10391000FEF72BFA2A463046BDE870402021FEF71C
:1039200024BA0000000801400348B0F80011B0F8C4
:103930000201081AC0B270475C36002010B5FEF7CD
:1039400021FBBDE81040FFF7B7BD30B593B028218B
:103950006846FCF73CFD14210AA8FCF738FD00245A
:1039600001200F9410941194010412948DE8130017
:1039700004904FF4E010CDE9081002250795684641
:10398000FFF774F908B172B6FEE70F20CDE90A051A
:103990004FF48060CDE90C4002210AA80E94FFF795
:1039A000A9F808B172B6FEE710200F9012940FA884
:1039B000FFF72AF8002801D072B6FEE713B030BD39
:1039C00070470000094C0A4D2078022807D10421D5
:1039D0002846FEF7C8F9012805D0FEF7B1F96420A2
:1039E000FFF71AFCF0E7FEF7B3F9F8E70000002054
:1039F000000801400022012611461046FFF77CFF17
:103A0000FEF79EF91D4F1E4D01213846FEF7ABF91A
:103A100004002DD1012E2BD11420FFF7FDFB012135
:103A20003846FEF7A0F918BB2878022809D0287874
:103A3000401C2870287830B101280CD0022817D1FA
:103A400011E00020F5E7002211461046FFF754FF71
:103A5000FEF776F90CE0002201211046FFF74CFF3B
:103A6000FEF776F904E0012100220846FFF744FF43
:103A700026463220FFF7D0FBC6E7000000080140D1
:103A8000000000204FF47A742046FFF7C5FBFBE7E7
:103A900030BFFDE74FF47A74FFF7AAFA01F04AF954
:103AA00008B1204600E0C820FFF7B6FBF4E70000AD
:103AB0001FB5314EFFF722FC044630A001F040F95B
:103AC000FFF7E2FB33780246214634A001F038F9D3
:103AD0003AA001F035F949A001F032F901F0F0F80F
:103AE0000520FFF799FB002537E02846FFF7D2FBBA
:103AF000040030D02846FFF7DDFB80462846FFF75C
:103B0000EBFB07462846FFF79DFBA17B062910D259
:103B1000DFE801F0030507090B0D48A10AE049A100
:103B200008E04AA106E04BA104E04CA102E04DA14F
:103B300000E04EA101AA009182E88101637BE26A64
:103B400002B94CA2217B4DA001F0FAF801F0B8F8BF
:103B50000520FFF761FB6D1CEDB2FFF795FBA84256
:103B6000C3D826A001F0ECF801F0AAF84FF4FA60EF
:103B7000FFF752FB9EE70000000000200D0A3D3DCC
:103B80003D3D3D205441534B204D4F4E49544F52E3
:103B9000203D3D3D3D3D0D0A000000007469636B12
:103BA0003D256C75207C207461736B733D257520F9
:103BB0007C206D6F64653D25750D0A004944202009
:103BC0004E414D45202020202020202050522020F2
:103BD00053544154452020535441434B5F46524572
:103BE00045202052554E5F434F554E5420204C41A6
:103BF00053545F5449434B0D0A0000002D2D2D2DC9
:103C00002D2D2D2D2D2D2D2D2D2D2D2D2D2D2D2DE4
:103C10002D2D2D2D2D2D2D2D2D2D2D2D2D2D2D2DD4
:103C20002D2D2D2D2D2D2D2D2D2D2D2D2D2D2D2DC4
:103C30002D2D2D2D2D2D2D2D0D0A0000554E5553BA
:103C400045440000524541445900000052554E4E33
:103C5000494E470044454C4159454400424C4F436E
:103C60004B45440053555350454E4400554E4B4E22
:103C70004F574E006E6F6E616D65000025752020F8
:103C800020252D31307320202575202020252D352D
:103C9000732020256C752020202020202020256CDA
:103CA000752020202020202020256C750D0A000082
:103CB00090B000256E463F21684601F059F8040097
:103CC0000CD0355507A001F0CBF82146684601F02D
:103CD00091F806A001F0C4F800F0F2FF1420FFF7FD
:103CE0009BFAE8E752583A20000000000D0A000055
:103CF0000448B0F80014B0F80204081AC0F3090030
:103D000070470000583200202DE9F041D0F8C03251
:103D1000D0F8B822CAB101EB810500EB850400267A
:103D2000E7693FB103EBC5031B6AB7FBF3F503FB80
:103D3000157323B1C2F814620020BDE8F08100239E
:103D40001A46E66100F07EFCF6E70220F5E770B562
:103D50000546D0F8B84200F07AFBC4F80C02D5F85A
:103D6000B80248B1D5F8BC12D4F80402CA6804F508
:103D700003719047002070BD022070BD70B50446ED
:103D80000026812100F0B6FA002501212046E562D7
:103D900000F0B0FA82212046C4F86C5100F0AAFA73
:103DA0002564D4F8B80248B1D4F8BC0204F52E74E6
:103DB00040688047206800F014FE2560304670BDE2
:103DC00010B5D0E9AE4159B194F80002FF2807D0F0
:103DD0008B6894F8012221469847FF2084F800025E
:103DE000002010BD0A2101800048704778000020A3
:103DF0004321018000487047C80000204321018012
:103E0000004870478400002043210180004870472B
:103E10000C0100202DE9F04104460026007C4FF4FF
:103E20000077012590B3402302228121204600F033
:103E300062FB4023E56202220121204600F05BFB89
:103E40000823032282212046C4F86C5100F053FB62
:103E50004FF40770256400F0C5FDC4F8B802F8B14E
:103E60000546D4F8BC02006880470020C5F814025B
:103E7000C5F81802207CD5F8042298B1402301210E
:103E8000204600F044FB3046BDE8F081FFE73B46AA
:103E900002228121204600F02EFB3B46E562CAE764
:103EA0000126F0E73B46EAE710B5D0F8B81269B151
:103EB000027C002AD1F8042205D04023012100F021
:103EC00026FB002010BD4FF40073F7E7022010BD61
:103ED00002460220002902D00020C2F8BC1270471E
:103EE000D0F8B802C0F8041200207047D0F8B80229
:103EF000C0F81022C0F80812002070472DE9FC41DC
:103F00000546D0F8B87200208DF80000ADF8040026
:103F1000064608780C4610F0600121D020293BD1DC
:103F2000E288AAB10006607807D5D5F8BC128B6884
:103F300039469847E288394626E087F80002A0799A
:103F400087F80102E2883946284600F06AF828E03E
:103F5000D5F8BC12607800228B682146984720E093
:103F6000607820B10A2809D00B2815D110E095F807
:103F70009C02032810D1022201A905E095F89C02B9
:103F8000032809D101226946284600F064F808E0B8
:103F900095F89C02032804D02146284600F036F804
:103FA00002263046BDE8FC8110B5D0F8B812A1B1A8
:103FB000D1F814220AB1012010BD0122C1F8142247
:103FC000D1F810220263B1F8102293B2D1F808227E
:103FD000812100F037FB002010BD022010BD10B57C
:103FE000D0F8B42252689047002010BD134610B597
:103FF0000A46002100F08BFA002010BD134610B5D0
:104000000A46002100F01EFB002010BD10B504463A
:10401000802100F0FCFA2046BDE81040002100F0AD
:10402000F6BA10B50323C0F85C21C0F89432C0F88A
:10403000602113460A46002100F069FA002010BDF5
:1040400010B505210023C0F894121A46194600F055
:104050005EFA002010BD10B50223C261C0F8943290
:10406000026213460A46002100F0ECFA002010BD5F
:1040700010B504210023C0F894121A46194600F026
:10408000E1FA002010BD000010B50A46024903A065
:1040900000F0E2F8004810BD6023002043444320B4
:1040A000436F6E6669670000122008800048704701
:1040B0002400002010B50A46024903A000F0CCF805
:1040C000004810BD6023002043444320496E7465BE
:1040D0007266616365000000042008800048704734
:1040E0002000002010B50A46024903A000F0B4F8F1
:1040F000004810BD6023002053544D6963726F6502
:104100006C656374726F6E696373000010B50A4664
:10411000024903A000F0A0F8004810BD6023002071
:1041200053544D3332205669727475616C20436F5D
:104130006D506F727400000010B51A2008800A4894
:104140000168001D0468001D0068081809D00822D5
:104150000649FEF731FF0549042210312046FEF7DB
:104160002BFF0248801E10BDE8F7FF1F3A00002019
:10417000F8B504460020ADF8000048880D46010A55
:10418000082948D2DFE801F04704091747473C45B2
:10419000D4F8B012207C0A6819E0207C022600289E
:1041A000D4F8B40205D0C16A684688470146467013
:1041B0003EE0816AF8E7C0B206282CD2DFE800F0C2
:1041C000030A1014181CD4F8B002426805E06946CE
:1041D00090471CE0D4F8B0028268E2B1207CF6E798
:1041E000D4F8B002C268F8E7D4F8B0020269F4E784
:1041F000D4F8B0024269F0E7D4F8B0028269ECE783
:10420000207C40B9D4F8B402416B68468847014627
:104210000EE0207C20B129462046FFF7F7FEF8BDCE
:10422000D4F8B402016B68468847014607204870FD
:10423000BDF8000048B1EA8852B1824200D9024676
:10424000ADF800202046FFF706FFE8880028E6D1F9
:104250002046FFF70DFFF8BD70B5002300281ED0E3
:104260000446002502E06D1CEDB2641C2678002E89
:10427000F9D1022404EB450414801278CA545B1C63
:104280000322CA5400245B1C06E0CA545B1CDAB249
:104290008C54521CD3B2401C0278002AF5D170BD58
:1042A00001004FF0000004D0012901D0022901D003
:1042B000022070470120704710B580B1D0F8B432A9
:1042C00013B10023C0F8B43209B1C0F8B012012113
:1042D00080F89C12027000F0BFF8002010BD022090
:1042E00010BD10B5D0F8C002FDF741FFBDE8104089
:1042F000FFF7D6BF10B5D0F8C002FDF713FFBDE839
:104300001040FFF7CDBF2DE9F0411746044651B1EB
:10431000D4F8B40242691AB194F89C02032851D02F
:104320000220BDE8F081D4F89432002504F1140095
:10433000022B03D0042B3AD0C3B33CE0D0E9036393
:104340009E4207D9F11AC1608AB239462046FFF76A
:1043500055FE12E08068B0FBF3F103FB110199B93F
:10436000984211D3D4F8981288420DD200221146F7
:104370002046FFF743FEC4F8985200231A46194618
:10438000204600F0C4F816E0D4F8B402C16829B1A0
:1043900094F89C02032801D12046884780212046BA
:1043A00000F035F92046FFF74BFE04E0FFE78021DF
:1043B000204600F02CF994F8A002012804D184F8DA
:1043C000A05201E0204690470020AAE770B51546AC
:1043D000044649B1D4F8B40282691AB194F89C0237
:1043E000032830D0022070BDD4F8941204F5AA70CE
:1043F000032902D005291ED027E0D0E903218A42F3
:104400000BD9531AC3600846834200D303469AB2BD
:1044100029462046FFF7EAFD17E0D4F8B402016907
:1044200029B194F89C02032801D1204688472046F0
:10443000FFF71EFE09E000200146C4F89402204662
:1044400000F0E5F801E020469047002070BDD0F86C
:10445000C002FEF7C8B8000010B504461C481D494C
:10446000C0F8D442C4F8C0020160082101710221E1
:10447000817100218172C1720173FEF7E9F908B1FF
:10448000FDF76EFC0022D4F8C0021823114604F593
:104490003074FDF715FE5823002280212068FDF7B7
:1044A0000FFEC023002281212068FDF709FE4FF492
:1044B0008873002201212068FDF702FE4FF480730B
:1044C000002282212068FDF7FBFD002010BD0000C6
:1044D000802F0020005C00400A0601F07F01D0F828
:1044E000C00201EB810100EBC10001D5807C704767
:1044F00090F85201704710B51C461346D0F8C00220
:104500002246FEF779F8BDE81040FFF7C9BE10B5A6
:10451000D0F8C002FEF79CF8BDE81040FFF7C0BE1F
:1045200070B50022044640231146FFF7E4FF402601
:104530000125C4F864613346002280212046C4F876
:104540005851FFF7D8FF6662A56184F89C5200209D
:10455000C4F894026060C4F8A402D4F8B80228B188
:10456000D4F8B4020021426820469047002070BD74
:1045700090F89C12042903D190F89D1280F89C12A7
:104580000020704710B590F89C12032904D1D0F890
:10459000B412C96901B18847002010BD0174002020
:1045A000704710B5D0F8C002FEF7E9F9BDE8104039
:1045B000FFF776BE70B5044600F52A70054600F098
:1045C0004AF80120C4F89402B4F8AE02C4F8980284
:1045D00094F8A80210F01F010AD001290DD0022979
:1045E00010D000F08001204600F011F8002070BDCE
:1045F0002946204600F09DF8F8E72946204600F0BD
:10460000C9F9F3E72946204600F01CF9EEE710B59A
:10461000D0F8C002FEF733F8BDE81040FFF740BE07
:1046200010B5D0F8C002FEF7C4F9BDE81040FFF79E
:1046300037BE90F89C1280F89D12042180F89C12DD
:104640000020704710B5D0F8C002FEF750F8BDE862
:104650001040FFF725BE0A7802704A7842708A78C7
:10466000CB7802EB032242800A794B7902EB0322DA
:1046700082808A79C97902EB0121C18070470246A4
:10468000002011B1C2F8B41270470220704710B573
:10469000D0F8B42202241AB11268904700B900245D
:1046A000204610BD70B50E461E4D8978044629700F
:1046B000012931D894F89C0202280BD003280FD08E
:1046C00031462046FFF7A2FC29782046BDE870401D
:1046D000FFF785BCD9B10320616084F89C0209E032
:1046E00071B16068884212D0C1B22046FFF777FCF2
:1046F000297861602046FFF7CAFF02280CD006E047
:10470000022084F89C0220466160FFF768FC204686
:10471000BDE87040FFF7ACBC31462046BDE87040B4
:10472000FFF774BC7400002010B5FFF779FF00207C
:1047300010BD2DE9F0410A78002612F0600208D081
:10474000202A01D0402A70D1D0F8B4229268904734
:104750006DE04B78002201250A2B66D2DFE803F0DA
:10476000405D6557650805652C29FFF701FD5EE092
:1047700004468888D8B9C888C8B94888802816D21D
:1047800000F07F0794F89C02032810D084F89E72F2
:1047900039462046FFF705FF2046FFF769FC1FB1A9
:1047A000022084F89C0242E084F89C523FE02046BC
:1047B0003BE0FFF777FF3AE0CB88012B35D190F84B
:1047C0009C32012B04D0022B02D0032B2DD104E00C
:1047D0008260012200F1080116E00122011D13E0B0
:1047E00090F89C22012A03D0022A01D0032A1CD16E
:1047F000CA88022A19D1C560D0F8A41209B10321D0
:10480000C160022200F10C01FFF725FC0FE049888E
:1048100001290CD1C0F8A45211E090F89C32012B70
:1048200008D0022B06D0032B04D0FFF7EFFB304655
:10483000BDE8F08149880129F9D1C0F8A422FFF729
:1048400017FCF4E72DE9F0410A46044610780027EA
:10485000097910F060030AD0202B01D0402B50D1F1
:10486000D4F8B40211468368204698478FE0C0F31D
:104870004110012806D05078D0B301282AD003284F
:104880003FD107E0D4F8B402114683682046BDE862
:10489000F041184794F89C02022802D0032872D1F4
:1048A0000AE071B380296ED02046FFF7B0FE802168
:1048B0002046FFF7ACFE6AE0508838B931B1802954
:1048C00004D0D08810B92046FFF7A1FE2046FFF79C
:1048D000CFFB5CE094F89C020228E2D0032852D17E
:1048E000508898BB4806F1D02046FFF7FAFCEDE768
:1048F000FFE794F89C020026022803D0032842D147
:1049000012E040E009B180293DD1080601F07F00A6
:1049100000EB800004EB800101D5143101E001F5CA
:10492000AA7102220E602AE0080601F00F0000EBD7
:10493000800004EB80000AD5806920B301F07F007D
:1049400000EB800004EB800514350BE01FE0D0F88D
:104950005801C0B101F07F0000EB800004EB80053E
:1049600005F5AA7541B1802906D02046FFF7B4FDB0
:1049700010B10120286000E02E6002222946204666
:10498000FFF769FB03E011462046FFF73FFB38467F
:10499000BDE8F08170B5054608780C4610F060005F
:1049A00003D0202801D0402816D195F89C02012878
:1049B00003D0022801D003280ED1207901280BD87A
:1049C000D5F8B402826828469047E188014306D1B1
:1049D0002846FFF74DFB02E02846FFF717FB0020B3
:1049E00070BD704700487047602D00202DE9F047EA
:1049F0000C78002630F8243048F68F121340CA781D
:104A0000002A78D0012A7CD0022A02D0032A75D04D
:104A1000012648F28002134320F824300D7830F844
:104A2000253048F68F7423402B43134320F825305C
:104A30000D7B48F2C00948F6BF734CF2800A4BF672
:104A40008F77EDB3CD7891F800C0022D30F82C505F
:104A50007DD048F68F6805EA0805154320F82C50EC
:104A6000B0F8505091F800C0054405EB0C15B1F8B2
:104A700008C02CF0010CA5F800C4B0F8505091F813
:104A800000C0054405EB0C15B1F80AC02CF0010C70
:104A9000A5F808C44D78002D7ED00D7830F825C0DB
:104AA0005FEA4C4C07D530F825C00CEA040C4CEA00
:104AB0000A0C20F825C091F800C030F82C5000E016
:104AC00022E06D0606D530F82C50254045EA090550
:104AD00020F82C50CC780D78012C30F8254004EAD1
:104AE00003047CD084F02003134320F82530C1E078
:104AF00001E006E002E043F400738AE743F4C06398
:104B000087E743F4806384E74D784DB3B0F85050A5
:104B10000F78054405EB0715CF8827F00107A5F8A6
:104B200000740F7830F827506D0606D530F82750FE
:104B3000254045EA090520F82750CC78012C07D0FC
:104B40000C7830F82410194081F0200104E064E072
:104B50000C7830F824101940114320F8241090E00C
:104B6000B0F850300D78034403EB0513CD8825F0E1
:104B70000105A3F80854B0F850300D78034403EB56
:104B80000513B3F80C54C5F30905A3F80C540D69CB
:104B900003F20C433E2D00E045E00BD94FEA551CD3
:104BA000ED0601D1ACF1010C1D884FF4004848EA34
:104BB0008C2C0BE035B34FEA550CED0701D00CF10E
:104BC000010C1D884FF6FF7808EA8C2C45EA0C058D
:104BD0001D800D7830F825305B0408D500E046E0F4
:104BE00030F82530234043EA0A0320F825300978BD
:104BF00061B130F821303B4083F40053134320F877
:104C000021303EE01D8845F40045E1E70188394048
:104C100081F440511143018033E0254048F280186F
:104C200045EA08051AE791F800C030F82C506D04E9
:104C300006D530F82C50254045EA0A0520F82C50BE
:104C400091F800C030F82C506D0606D530F82C5085
:104C5000254045EA090520F82C500D7830F825400C
:104C60003C4084F44054144320F8254070E714433A
:104C700020F825400B7830F823103940114320F8F4
:104C800023103046BDE8F08710B540F204410948D2
:104C9000FBF77BFB4FF482710748FBF776FB064975
:104CA000FC3100208864C8640865486503490870C1
:104CB000487010BD583200205C360020880100206A
:104CC00070B51948407800282DD0FDF703F800286A
:104CD00029D1FFF70DF8002825D0FFF709F8134C6C
:104CE0000546402802D94025002001E000200DE0C3
:104CF000B4F802140E4AC1F30901615C1154B4F80E
:104D00000214491CA4F80214401C80B2A842EFD33C
:104D100029460748FCF7FCFF002804D0B4F8020439
:104D2000401BA4F8020470BD880100205832002006
:104D3000603700200148407870470000880100205B
:104D40000FB4802100B5A1B023AB6846229AFBF7CF
:104D5000E3FA002803DC012021B05DF814FB802871
:104D600000DB7F2081B2684600F044F8F4E70000E1
:104D700070B50C460546FEF7D7FDA04200D9204687
:104D80000021094A0CE000BFB2F80231DBB2D35C6B
:104D90006B54B2F802315B1CA2F80231491C89B293
:104DA0008142F1D370BD00005C3600202DE9F04156
:104DB0000E46074600240D4D0FE000BFFEF7B4FD80
:104DC000FF2809D2385DB5F80011C9B26854B5F8AA
:104DD0000001401CA5F80001641CB442EED3044855
:104DE000416831444160BDE8F08100005C3600203C
:104DF000A037002070B5054616480C46407870B1C3
:104E00007CB1FEF775FFA0F2FF30404281B212483C
:104E1000A14208D28168491C8160032070BD012035
:104E200070BD002070BD00220C490CE0AB5CB1F8F5
:104E30000064C6F309068B55B1F800345B1CA1F879
:104E40000034521C92B2A242F0D3016821440160A6
:104E5000E7E7000088010020A0370020583200203A
:104E600010B50446FBF772FA81B22046BDE8104047
:104E7000FFF7C0BF06494870064A0028907306D164
:104E8000A2F5A962A2F80204A2F800040870704713
:104E900088010020A0370020002070472DE9F04352
:104EA00091F80C804F780A7848F6BF7C4BF68F79E2
:104EB00048F2800348F2C0054CF2800648F68F7431
:104EC000B8F1000F28D0002F30F822704FEA474782
:104ED00048D0002F05DA30F822702740374320F8F9
:104EE00022700A7830F822707F0605D530F82270DB
:104EF00027402F4320F822700D7830F825202240DB
:104F0000324320F825200C7830F8242002EA0C02E5
:104F10001A4320F824201AE07FB130F82260760688
:104F200005D530F8226026402E4320F822600A780A
:104F300030F8221001EA0C010EE030F822506D0426
:104F400005D530F822502540354320F822500A7804
:104F500030F8221001EA0901194320F8221000203C
:104F6000BDE8F083002F05DA30F822702740374380
:104F700020F822700A7830F82260760605D530F8DD
:104F8000226026402E4320F822600E7830F826203A
:104F900022402A4320F826200C7830F8242002EA08
:104FA00009021A4320F82420C1E70020704700209E
:104FB0007047012120F8401F00210180818001827B
:104FC0000846704730F8401F21F43F41018000201F
:104FD00070470020704730B50A7BB2BB4A7848F66C
:104FE0008F7548F28004C2B10B7830F82320520646
:104FF00007D530F823202A4048F2C0052A4320F87C
:105000002320CA78012A20D00A7830F8221048F6E6
:10501000BF73194081F0200114E00A7830F8223083
:105020005B0407D530F822302B404CF280052B432F
:1050300020F822300A7830F822104BF68F7319408E
:1050400081F44051214320F82210002030BD10B5DA
:105050004A780978002A48F2800330F8212005D0E8
:1050600048F6BF74224082F0100204E04BF68F74C1
:10507000224082F480521A4320F82120002010BDE3
:105080002DE9F0470D464B78097B04464FF00009A7
:1050900048F68F7248F2800A4FF400474FF6FF78C7
:1050A000012B09D000296FD0E87802286DD00128A3
:1050B0006CD00120BDE8F087AE692869864200D92E
:1050C000064691B1E97802291ED0286A801B286221
:1050D000287834F820104906B4F85010214401EB28
:1050E000001073D5A0F80C6416E1B3B2EA8820462C
:1050F000696900F067FAB4F850002978204400EBA1
:105100000110A0F804640DE1296A814277D9297859
:1051100034F82100104048F28012104324F8210096
:10512000286A801B2862287834F82010490669789C
:1051300071D511B101292AD030E0B4F850102144C2
:1051400001EB0010B0F80C14C1F30901A0F80C1425
:1051500000F20C403E2E07D97109F20600D1491E1B
:10516000028847EA812107E04EB17108F20700D0BA
:10517000491C028808EA81210A4302800EE0018866
:1051800041F40041018009E0F1E020E195E1B4F84B
:105190005020111901EB0010A0F80C646A89B3B219
:1051A0002046696900F00EFA68693044686129692F
:1051B000286A884202D9801B286202E00646C5F8A8
:1051C0002090687818B101282BD032E02FE0B4F895
:1051D00050002978204400EB0110B0F80414C1F30A
:1051E0000901A0F8041400F204403E2E08D9710908
:1051F000F20600D1491E028847EA812108E0A1E0B9
:1052000056B17108F20700D0491C028808EA8121D2
:105210000A4302800DE00EE0018841F40041018064
:1052200007E0B4F850002978204400EB0110A0F802
:1052300004642A8971E011B1012927D02DE0B4F866
:105240005010214401EB0010B0F80414C1F309011F
:10525000A0F8041400F204403E2E07D97109F206AA
:1052600000D1491E028847EA812107E04EB171084A
:10527000F20700D0491C028808EA81210A43028013
:105280000BE0018841F40041018006E0B4F85010C1
:10529000214401EB0010A0F804642A89B3B220462F
:1052A000696900F08FF96869304468612969286A82
:1052B000884202D9801B286202E00646C5F8209089
:1052C000687810B1012836D026E0B4F8500029786B
:1052D000204400EB0110B0F80C14C1F30901A0F850
:1052E0000C1400F20C403E2E07D97109F20600D1D1
:1052F000491E028847EA812107E04EB17108F20792
:1053000000D0491C028808EA81210A43028003E098
:10531000018841F4004101806A89B3B2204669697D
:1053200000F050F9297834F8210048F6BF72104097
:1053300080F030000FE1B4F850100819297800EB24
:105340000110CFE62A7834F8220048F68F6318401F
:1053500040EA0A0024F82200B4F850002A782044D9
:1053600000EB02108BB2A0F804342A89D6E7A969B1
:105370002869814202D9091AA96102E00846C5F8E4
:105380001890B4F850102A78214401EB0211B1F8BA
:105390000C24C2F30902A1F80C2401F20C413E28AE
:1053A0007DD94209C00600D1521E088847EA8222F0
:1053B0000AE0088840F4004007E04208C00700D037
:1053C000521C088808EA822210430880BBE033BBE5
:1053D000B4F850002978204400EB0110B0F8041410
:1053E000C1F30901A0F80414296900F204403E2920
:1053F00007D94B09C90600D15B1E018847EA832300
:1054000007E041B14B08C90700D05B1C018808EADE
:105410008323194302E0018841F400410180687848
:1054200010B1012828D030E0B4F850002978204489
:1054300000EB0110B0F80C14C1F30901A0F80C1432
:10544000296900F20C403E2907D94B09C90600D151
:105450005B1E018847EA832307E041B14B08C90777
:1054600000D05B1C018808EA8323194302E001880D
:1054700041F40041018008E0B4F85010081929787F
:1054800000EB0110298AA0F80C14E869C0B3297850
:1054900034F82100430401D5430605D400E046E07A
:1054A00044F2400318424ED134F82100104048F233
:1054B000C002104324F8210045E0A969286981420F
:1054C00002D9091AA96102E00846C5F8189013BB71
:1054D000B4F850102A78214401EB0211B1F80424E9
:1054E000C2F30902A1F8042401F204413E2808D9BC
:1054F0004209C30600D1521E0B8847EA822208E007
:1055000021E078B14208C30700D0521C0B8808EA9A
:10551000822213430B80697800293FF42EAF0129C2
:1055200009D010E00A8842F400420A80F3E700281C
:105530007FF443AF3DE7B4F8502011192A7801EB0E
:105540000211A1F80C04297834F821004BF68F726F
:10555000104080F4405040EA0A0024F82100002066
:10556000A8E50021A0F844104FF43F41A0F84010F6
:10557000002070470148FDF7D1B80000802F0020BF
:10558000B0F844007047000010B500EB42005C0822
:1055900000F5806009D000BF30F8042B01F8012B22
:1055A000120A01F8012B641EF6D1DA0701D0008837
:1055B000087010BD0020704711B98021A0F84C1070
:1055C0000020704710B55B1C00EB42005B0800F543
:1055D000806009D011F8012B11F8014B42EA042236
:1055E00020F8042B5B1EF5D110BDFEE7490050EA00
:1055F000C12018BF04204A0D18BF40F0010040F23E
:10560000FF72B2EB515F08BF40F00200012808BFF3
:10561000052070470907090E002804DB00F1E0208F
:1056200080F80014704700F00F0000F1E02080F8CF
:10563000141D70470907090E002804DB00F1E02063
:1056400080F80014704700F00F0000F1E02080F8AF
:10565000141D704730380A2801D2012070470020FD
:10566000704700000EB5FCF795FCFEF76EF9FDF7EC
:10567000C7FCFDF721FDFCF775FBFFF705FBFDF708
:1056800043FEFDF77BFE022527A005240095CDE90A
:1056900001408023274A00212748FDF739FD0321D7
:1056A000CDE9001425A002908023274A0021274835
:1056B000FDF72EFD26A00095CDE901402B02264ADC
:1056C00000212648FDF724FD25A00094CDE90140E6
:1056D000C023264A00212648FDF71AFD0A21CDE9FC
:1056E000001424A002908023234A00212348FDF7C0
:1056F0000FFD1421CDE9001421A002904FF4407356
:10570000214A00212148FDF703FD21A20121FE20AD
:105710008DE807008023204A00212048FDF7F8FC8F
:10572000FDF7AAFEFEE7000042746E5F5461736BE2
:10573000000000009C010020F539000853656E73DD
:105740005F5461736B0000009C030020C5390008A2
:105750007573625F727800009C050020B13C000800
:105760006865617274626561740000009C0D0020C0
:10577000853A00086C6564009C100020953A00088A
:105780006D6F6E69746F72009C120020B13A000850
:1057900069646C65000000009C1E0020913A0008BE
:1057A00010B500290AD00878002807D005487844A9
:1057B000FBF75CFE002801D0002010BD02487844B1
:1057C00010BD0000920100008A01000010B5002900
:1057D0000AD00878002807D005487844FBF746FE31
:1057E000002801D0002010BD0248784410BD000000
:1057F000820100007A010000FBF745BAFBF77ABB93
:10580000010202030405060708090A0B0C0D0E0F1E
:105810001010000000000000000001020304060751
:1058200008090000000000000000000030313233A1
:1058300034353637383941424344454640305800C4
:1058400030313233343536373839616263646566F6
:105850004030780004000008000000000000000252
:1058600000010000103031323334353637383961B9
:1058700062636465667870003031323334353637B0
:105880003839414243444546585000000240000028
:10589000000000A00000000005400000000000C85B
:1058A000000000000C4000000000409C00000000D0
:1058B000194000000020BCBE000000003440000081
:1058C000BFC91B8E00000004B5400000504BCFD074
:1058D0006607E2CF010000006C4100003E8251AA41
:1058E000DFEEA73401000000D9420000DCB5A0E2E1
:1058F0003A301F97FFFFFFFFB4450000FD25A0C809
:10590000E9A3C14FFFFFFFFFFF3F00000000008041
:1059100000000000FF3F00000000008000000000C9
:105920006C5A0008000000209C01000028010008BB
:10593000305B00089C0100202C4800008401000816
:105940001C00000043000000F8FFFFFF0C000000F7
:105950000E0000000F0000002E00000010010000EB
:1059600043000000F8FFFFFF00404040404040403F
:105970004040414141414140404040404040404022
:1059800040404040404040404005020202020202C6
:105990000202020202020202022020202020202015
:1059A0002020200202020202020290909090909029
:1059B00010101010101010101010101010101010E7
:1059C000101010100202020202028888888888885B
:1059D0000808080808080808080808080808080847
:1059E000080808080202020240000000000000004F
:1059F00000000000000000000000000000000000A7
:105A00000000000000000000000000000000000096
:105A10000000000000000000000000000000000086
:105A20000000000000000000000000000000000076
:105A30000000000000000000000000000000000066
:105A40000000000000000000000000000000000056
:105A50000000000000000000000000000000000046
:105A60000000000000000000000000004113A940F9
:105A70001B08D9041AE504130D411B0839041A89BF
:105A80000C1AB504170403090412011402020216C9
:105A90004083044057260201020301031A1A03132C
:105AA000B11C1B08AD041A8D041AED04192F1182C4
:105AB0001053127A130A0632022A401C1C090243B0
:105AC000571125C03209041B01020B1305241610BF
:105AD000010524011009010424020205240617010E
