:020000040800F2
:10000000E83A0020C5020008DF31000895300008FA
:10001000DD310008BB1D0008536600080000000029
:100020000000000000000000000000007502000851
:10003000551E00080000000099020008993F0008C2
:10004000DF020008DF020008DF020008DF0200080C
:10005000DF020008DF020008DF020008DF020008FC
:10006000DF020008DF020008DF020008DF020008EC
:10007000DF020008DF020008DF020008DF020008DC
:10008000DF020008DF020008DF020008DF020008CC
:10009000DD650008DF020008DF020008DF0200085B
:1000A000DF020008DF020008DF020008DF020008AC
:1000B000DF020008DF020008DF020008DF0200089C
:1000C000DF020008DF020008DF020008DF0200088C
:1000D000DF020008DF020008DF020008DF0200087C
:1000E000DF020008DF020008DF02000800F002F86B
:1000F00000F0B0F80AA090E8000C82448344AAF112
:100100000107DA4501D100F0A5F8AFF2090EBAE80F
:100110000F0013F0010F18BFFB1A43F0010318473B
:1001200098680000B86800000A444FF0000C10F80E
:10013000013B13F0070408BF10F8014B1D1108BF65
:1001400010F8015B641E05D010F8016B641E01F805
:10015000016BF9D113F0080F1EBF10F8014BAD1C55
:100160000C1B09D16D1E58BF01F801CBFAD505E073
:1001700014F8016B01F8016B6D1EF9D59142D6D3CD
:10018000704700000023002400250026103A28BFF5
:1001900078C1FBD8520728BF30C148BF0B607047F9
:1001A0006E2900F07582702900F0BF83662906F081
:1001B0006583652906F06283672906F05F836129FC
:1001C00006F05E8303681B0A28BF41F0800169299D
:1001D00000F02282642900F01F82752900F01C8241
:1001E0006F2900F04C83782900F08B83E92900F017
:1001F000E782E42900F0E482F52900F0E182EF29AA
:1002000000F04983F82900F08A830368DB0928BFDE
:1002100041F08001632901F08D80732901F0928003
:10022000E32901F09D80F32901F0A28000207047AE
:100230001FB501F0EFF804000020002106F008FBD4
:10024000401C60600020002106F0ECFAE0601FBD59
:1002500010B510BD01F0B0F81146FFF7E9FF06F048
:1002600035FA01F08DF903B4FFF7F2FF03BC01F09A
:10027000D5F90000074801680868B0E8F00F80F37E
:100280000988022080F31488BFF36F8F6FF0020E8D
:10029000704700008C010020EFF30980084B1A68BA
:1002A00012B120E9F00F106008B503F0CFFABDE8F5
:1002B000084018600168B1E8F00F81F309887047C1
:1002C0008C0100200948804709480047FEE7FEE707
:1002D000FEE7FEE7FEE7FEE7FEE7FEE7FEE7FEE7F6
:1002E00004480549054A064B704700001D400008B8
:1002F000ED000008E82E0020E83A0020E832002057
:10030000E83200207CB51D4616460C00009001D056
:100310002044401E074B7B442A46694601903046E4
:1003200000F0CFF905461CB10020694600F0DCF969
:1003300028467CBDD903000010B5431C02E010F82C
:10034000011B71B18107FAD14FF0013202C88C1A3A
:100350008C4314EAC211F9D0C01A0A0603D0C01E99
:1003600010BDC01A10BD0A0401D0801E10BD0902C4
:10037000FCD0401E10BD032A40F2308010F0030C68
:1003800000F0158011F8013BBCF1020F624498BFE8
:1003900011F801CB00F8013B38BF11F8013BA2F185
:1003A000040298BF00F801CB38BF00F8013B11F000
:1003B000030300F02580083AC0F0088051F8043BA0
:1003C000083A51F804CBA0E80810F5E7121D5CBF0D
:1003D00051F8043B40F8043BAFF30080D20724BF40
:1003E00011F8013B11F801CB48BF11F8012B24BFD4
:1003F00000F8013B00F801CB48BF00F8012B704723
:1004000010B5203AC0F00B80B1E81850203AA0E8AF
:100410001850B1E81850A0E81850BFF4F5AF5FEAE3
:10042000027C24BFB1E81850A0E8185044BF18C996
:1004300018C0BDE810405FEA827C24BF51F8043B3D
:1004400040F8043B08BF7047D20728BF31F8023B91
:1004500048BF11F8012B28BF20F8023B48BF00F825
:10046000012B70474FF000020429C0F0128010F0F9
:10047000030C00F01B80CCF1040CBCF1020F18BF80
:1004800000F8012BA8BF20F8022BA1EB0C0100F013
:100490000DB85FEAC17C24BF00F8012B00F8012BE6
:1004A00048BF00F8012B70474FF0000200B513461B
:1004B00094469646203922BFA0E80C50A0E80C5084
:1004C000B1F12001BFF4F7AF090728BFA0E80C5035
:1004D00048BF0CC05DF804EB890028BF40F8042B2E
:1004E00008BF704748BF20F8022B11F0804F18BF9B
:1004F00000F8012B704710B5044610F0030F08BF39
:1005000011F0030F40F015804FF0013E121FC0F2B2
:100510000E8051F8043BA3EB0E0C2CEA030C1CEAF2
:10052000CE1C08BF40F8043BF0D0A1F1040102F159
:100530000402521E08DB11F8013B002B00F8013BBE
:10054000F7D11146FFF78EFF204610BD7047704768
:10055000704770B5044685690068C10601D530262C
:1005600000E02026C00707D070BDD4E90121304645
:100570009047206A401C20626D1EF6D570BD70B594
:10058000044685690078C00707D170BDD4E9012110
:1005900020209047206A401C20626D1EF6D570BD59
:1005A00009684A0501D540B27047C905FCD500B2BB
:1005B000704709684A0501D5C0B27047C905FCD526
:1005C00080B2704770B50C460546012A05D02878E0
:1005D000800600D5EA69002302E0012305E05B1CE8
:1005E000934202D2E05C0028F9D1A869E618C01A4B
:1005F000A861286A184428622846FFF7AAFF04E089
:10060000D5E9012114F8010B9047B442F8D32846EC
:10061000FFF7B5FF70BD00002DE9F041064600244C
:1006200010687529314616A510D0FFF7B9FF0028CC
:1006300002DA404213A507E031688A0701D512A506
:1006400002E0490704D511A5012401E0FFF7B1FF3D
:1006500000210A2206F1240709E0B0FBF2FCB0FBFE
:10066000F2F302FB1C00303078541846491C002875
:10067000F3D123462A463046BDE8F04100F069BA7E
:10068000000000002D0000002B00000020000000F2
:1006900011680268006A530501D508700AE0D305A5
:1006A00001D5088006E0130603D5C217C1E9000290
:1006B00000E008600120704701694A1C0261087867
:1006C000704700B58FB0CDE9013100210591054992
:1006D0007944CDE903101146684600F031F90FB0B6
:1006E00000BD0000E5FFFFFF0A6802F8010B0A6089
:1006F0007047D1E900239A4202D2531C0B6010705C
:10070000704700002DE9FF5F15468A460446DFF872
:10071000AC80F8440027D8E900103E46CDE900102F
:1007200010E03AF816106A4602A800F025FE411CB7
:1007300007D02178890603D5E269391891420DD88E
:100740000744761C2078800602D5E069B84205DDB2
:10075000AE42E6DB3AF816000028E2D1A069C01BE1
:10076000A0612046FFF7F5FED8E90010CDE90010A2
:10077000002017E03AF818106A4602A800F0FCFDC5
:10078000B0F1FF3F81460BD000250DF1080B05E0CD
:10079000D4E901211BF8050090476D1C4D45F7D3A6
:1007A00008F10100B0428046E4DB206A3844206250
:1007B0002046FFF7E4FEBDE8FF9F0000A6610000B1
:1007C0002DE9F0418046D21D22F007020025D2E932
:1007D0000002F52915A614D0011E72F1000106DAF7
:1007E0000023D0EB030063EB020211A608E0D8F867
:1007F00000108B0701D50FA602E0490701D50EA610
:1008000001251146002408F1240704E000F05CF9FA
:1008100030323A55641C50EA0102F7D12B46324679
:1008200021464046BDE8F04100F093B900000000C9
:100830002D0000002B0000002000000030B400213B
:1008400000F1240408E002F00705D208303542EA3E
:100850004372DB086554491C52EA0305F3D104686E
:10086000002310A2250707D5A40600D421B1C4692E
:1008700001230DA2641EC46130BC00F06AB910B53A
:10088000044621461068FFF794FE02462046BDE864
:1008900010400023D2E7D21D22F00701D1E9002346
:1008A000CCE700000000000030000000F0B40D466E
:1008B0000188090502D5214C7C4402E01F4C7C4490
:1008C0000E34002100F1240608E002F00F0712099F
:1008D000E75D42EA03721B097754491C52EA030799
:1008E000F3D102780023120704D5702D06D009B188
:1008F000022311342246F0BC00F02BB9012310343E
:10090000F8E770B504460D4621461068FFF751FE22
:10091000024629462046BDE870400023C6E7D21DA6
:1009200022F00703D3E90023C0E70368126843F00D
:10093000200303600823C3610023B7E708600000B9
:100940002DE9F05F894604464FF0000ADFF874B1E4
:10095000FB44C0F820A02046E1688847002874D0F6
:10096000252806D0D4E901219047206A401C206246
:10097000F1E700265F462046E168884720280546C3
:1009800007DB312D05D2781910F8200C08B1064389
:10099000F1E7B00701D526F00406C4F81CA0002733
:1009A000C4F818A02A2D09D0284605F087FE38B3D0
:1009B00004EB8708303DC8F8185019E059F8041BBB
:1009C000204604EB87029161E1688847012F0546C4
:1009D00018D1E069002820DA26F020061DE0D8F8BA
:1009E000180000EB800005EB40003038C8F8180014
:1009F0002046E1688847054605F060FE0028EED1F4
:100A0000012F0AD02E2D08D12046E16888477F1C8F
:100A10000546022F46F02006C4DBA069002803DA51
:100A2000404246F00106A061F00701D026F0100612
:100A30006C2D0BD0682D09D04C2D39D06A2D35D0B6
:100A4000742D35D07A2D33D016E038E0E1682F468A
:100A500020468847B842054609D16C2F26D04FF46E
:100A60008060E168064320468847054604E06C2F15
:100A70001AD04FF4807006430DB3A5F14100192838
:100A800002D8203546F400664A46294620462660AC
:100A90004E46FFF785FB80B101280BD0F61D26F0EE
:100AA000070000F1080956E74020E4E78020D8E776
:100AB0000020D6E706F104094DE7284652E7206AF0
:100AC000BDE8F09F985F000030B5B0F10A024FEA30
:100AD000900E71F100034EEA817EB0EB0E0061EBE7
:100AE00091014FEA101E4EEA017E10EB0E0041EB21
:100AF00011114FEA102E4EEA016E10EB0E0041EB81
:100B000011214FEA104E4EEA014E10EB0E0041EB60
:100B10001141401841F100014FEAD00040EA417014
:100B20004FEAD10110EB80054FEA810444EA90744A
:100B300044EB01046D1944EB0404521BA3414FF034
:100B4000000348BF0A3200D530BD401C41F100010E
:100B500030BD2DE9F0470D4699469246044600F116
:100B600024080168880604D5E06921F0100121609D
:100B700000E00120A84201DD471B00E00027A16939
:100B80007A1902EB0900081AA0612078C00602D485
:100B90002046FFF7DEFC002608E0D4E901211AF820
:100BA00006009047206A401C761C20624E45F4DB0C
:100BB0002078C0060AD52046FFF7CBFC06E0D4E932
:100BC000012130209047206A401C2062381EA7F186
:100BD0000107F4DC07E0D4E9012118F8050090478B
:100BE000206A401C2062281EA5F10105F3DC204686
:100BF000FFF7C5FC2078000602D50220BDE8F0878B
:100C00000120FBE770472DE9FF4F0C461E464FF0D1
:100C1000FF378BB0D2E90001DDF860800A908A4688
:100C2000C1F30A5505B93D46002108464FF00000C2
:100C3000BAF1000F00F4400005DA00EB80004FF439
:100C4000400101EA50004FEA9059B9F1010F00DD6F
:100C5000B9460A9850EA4A000ED044F61050A5F260
:100C6000FF3545432F14B8F1000F1ED07542291EE1
:100C70001EDDC9F100021CE0B8F1010F4FF00000C9
:100C800001D0302103E0F24305E02154401CB04282
:100C9000FBDB30460022002121540B99C1F808806B
:100CA000C1E900200FB0BDE8F08FBD1B6D1CDEE771
:100CB0004A4600DA694206A800F0F0FB06AB93E86A
:100CC000070003AB83E8070050460A9900F0ADFC2B
:100CD0008DE80700A0F500501F3800900398002D04
:100CE0000ADD42F21F014A460844002303A903908B
:100CF000684600F016FF09E0A0F500504A461F388C
:100D0000002303A90390684600F020FF8DE8070048
:100D10000004000C03D04FF0FF30410800E0104603
:100D2000B8F1000F03D00022009215461EE0751E98
:100D300005D4FFF7C9FE303262556D1EF9D5B346B2
:100D40000122084302D000227F1C04E020783028D2
:100D500001D100227F1E002A099784D01DE0112DA9
:100D600007DAFFF7B1FE303262556D1C50EA01021E
:100D7000F5D1084302D00098C8B10EE00021681EEA
:100D800005E0235C625C63542254401E491C81428E
:100D9000F7DBAB46A81B401E0990002004F80B00AF
:100DA0000B98099AC0F80880C0E9002B7AE7112651
:100DB0004FF0000857E72DE9F04F88460446D21D52
:100DC00022F0070191B0D1E90001CDE90A0105F057
:100DD00041FC02460B98C00F01D02D2007E020688F
:100DE000810701D52B2002E0202101EAC000032A5F
:100DF000099001D0072A05DB03464146204600F052
:100E00000DFB0BE12078800601D5E06900E00620AB
:100E1000B8F1650F814606D0B8F1660F18D0B8F169
:100E2000670F70D131E00020B9F1110F009001DBA4
:100E3000112301E009F101030AAA01A90CA8FFF797
:100E4000E2FEDDE90C70002609F10105834647E06A
:100E500001204B4600904FF000470AAA01A90CA8B8
:100E6000FFF7D1FEDDE90DB00C995D46002610B903
:100E700009F101000D18B9EB050003D4C0F1FF36EC
:100E800009F10105A5EB09002BE0B9F1010F01DA29
:100E90004FF001090020B9F1110F0090484601DD23
:100EA000112300E003460AAA01A90CA8FFF7ABFE34
:100EB000DDE90C704D4600268346207800070AD4F1
:100EC000AB4500DA5D4601A8012D04DD411911F89A
:100ED000011C302907D04F4502DA17F1040F04DA5C
:100EE000012082460FE06D1EEEE7002F02DCED1BB5
:100EF0003E4403E0781CA84200DD7D1CB81B00F1D5
:100F0000010A4FF000472078000703D4AA4501DB0F
:100F10004FF0FF3A0021B7F1004F0DF143088DF873
:100F2000431024D002202B23002F01DA7F422D23EF
:100F30000A21021EA0F1010000DC5FB197FBF1FC69
:100F400097FBF1F201FB1C7C17460CF1300C08F802
:100F500001CDEEE7A8F1010003702188090501D554
:100F6000452100E06521A0F1010800F8011C099865
:100F70000FA9A1EB0807FF1D00B10120411901EBEA
:100F8000EA70A1693844081A401EA0612078C006A2
:100F900002D42046FFF7DDFA099828B1D4E90121EF
:100FA0009047206A401C20622078C00622D5204647
:100FB000FFF7CFFA1EE0002E04DBB34502DD01A8E7
:100FC000805D00E03020D4E901219047206A401C78
:100FD0002062761CAAF101005FEA000A0AD100F043
:100FE00019FAC0680168405CD4E901219047206A81
:100FF000401C2062281EA5F10105DCDC07E0D4E9D5
:10100000012118F8010B9047206A401C2062381E0D
:10101000A7F10107F3DC2046FFF7B1FA032011B076
:1010200041E600002DE9F04F04460D46D21D22F0A6
:10103000070089B0D0E900974846394605F00AFB19
:101040000246F80F01D02D2307E02068810701D563
:101050002B2302E0202101EAC0038DF820300BB1E0
:10106000012000E00020032A824601D0072A04DB89
:101070002946204600F0D2F93FE12078800601D4CD
:101080000D2500E0E569C7F30A560D2D49DA002168
:101090004FEA175B08464FF00000002F00F44000B5
:1010A00007DA00EB80004FF4400100EBD07001EA5A
:1010B00060008115012901DD4FF0FF3100224FEA68
:1010C000850CBCF1180F06D31346ACF118004FF095
:1010D0008052C24003E04FF4801323FA0CF30CF16A
:1010E0000C0CBCF1200F04D3ACF1200C09FA0CF06D
:1010F00001E007FA0CF000294FF0004801DD18B9B3
:101100000FE00ED140450CD319EB02095F4121B924
:10111000404502D19F4329EA0209BBEB175F00D08B
:10112000761C2088000502D57B48784402E07A4886
:101130007844193808AA302302F80A30037C0AF1EF
:101140000101002E0AF1020A53546A4602DC4FF0F4
:10115000300101E04FF031014FF001088DF800102F
:1011600002D0A6F2FF3603E059EA470100D06B4EE9
:10117000002D02DC2178090704D54FF002082E214A
:101180008DF80110C44600210BE0C7F303433F0173
:10119000C35C491C6D1E02F80830052908F10108DE
:1011A00001DA002DF1DC00210CE000EB1973491C81
:1011B0001B786D1E082902F808304FEA091908F15A
:1011C000010801DA002DF0DC21688B0602D516E05B
:1011D000A8F10108E04505DD02EB080313F8013C26
:1011E000302BF5D0B8F1000F09DD02EB080313F83E
:1011F000013C2E2B03D1090701D4A8F10108002DD1
:1012000005DD3E2102F808106D1E08F10108407C42
:10121000002E02F8080008F1010804DA2D207642B9
:1012200002F8080002E02B2002F808000A214FF41F
:101230007A70864208F101080BDB96FBF0F330333D
:1012400002F8083096FBF0F308F1010800FB136682
:1012500001E0642E0CDB642096FBF0F3303302F8DF
:10126000083096FBF0F308F1010800FB136601E07B
:101270000A2E06DB96FBF1F0303002F8080008F188
:10128000010896FBF1F001FB1060303002F8080015
:10129000A16908F1010808EB050202EB0A00081A2F
:1012A000A0612078C00602D42046FFF752F9216AD7
:1012B00008AE01EB0A00206204E0D4E9012116F82F
:1012C000010B9047BAF1010AF7D22078C00602D587
:1012D0002046FFF73EF96E4609E016F8010B3E285E
:1012E0000FD0D4E901219047206A401C2062B8F158
:1012F0000108F2D22046FFF742F909B00320BDE809
:10130000F08F206A2844206203E0D4E901213020D4
:1013100090476D1EEBD3F8E7E257000002FCFFFF99
:1013200010B5436913B1AFF3008001E0FFF74AF94C
:10133000012010BD127800F124010A7000224A70C9
:101340000122EDE711684FF0FF32E9E710B543697C
:1013500013B1AFF3008001E0FFF7D4F9012010BD15
:10136000128800F1240182840022C2840122EDE768
:1013700011684FF0FF32E9E770B516460C46054696
:1013800000F040F8036893F80101012806D0FF2C13
:101390000FD8185D68B101202C7070BDD3F807011B
:1013A0003246214603F2071303442846BDE8704045
:1013B00018474FF0FF3070BD754600F0EBF8AE46B1
:1013C00005006946534620F00700854618B020B551
:1013D000FEF786FFBDE820404FF000064FF0000703
:1013E0004FF000084FF0000B21F00701AC46ACE8CD
:1013F000C009ACE8C009ACE8C009ACE8C0098D463A
:101400007047000010B500F005F8001D10BD00BFCA
:101410004154000000487047A42E00202DE9F041FF
:101420001F46044603260168072A01F4006004DB16
:1014300008B116A505E016A503E008B115A500E062
:1014400015A521F010002060A069C01EA0610FB199
:10145000401EA0612046FFF77CF84FB1D4E901217E
:1014600038469047206A401C2062C01C206206E07B
:10147000206AFAE7D4E9012115F8010B9047761E9E
:10148000F8D22046FFF77BF8BDE8F0814E414E00D0
:101490006E616E00494E4600696E66002DE9F047A8
:1014A000814616468AB0354878440DC88DE80D004F
:1014B00032487844801C03AC0DC884E80D0041F626
:1014C0009B300844372190FBF1F290FBF1F5A5F138
:1014D000800501FB12041B3C02D56442012000E0A0
:1014E0000020DFF898A080460027FA44AAF1BE0A3F
:1014F0000EE0E0070AD03246684607EB47010123B9
:101500000AEB810100F022FB8DE8070064107F1CCC
:10151000002CEED1194F7F44AE3F19E0E80715D0FB
:1015200007EB04100DF1180A90E80E008AE80E008F
:10153000C068F04201D1981908903246012306A9EB
:1015400003A800F003FB03AB83E807006D10641CE5
:10155000002DE3D14FF0010332466946B8F1000F88
:1015600003A802D000F0DDFA01E000F0EFFAC9E9CB
:101570000001C9F808200AB0BDE8F087F454000063
:1015800010B50446AFF300802046BDE81040FEF7DA
:101590006ABE000000487047842E00204FF0013CD6
:1015A00050F8042B51F8043B9A4221D1A2EB0C03D2
:1015B000934313EACC1317D150F8042B51F8043B92
:1015C0009A4215D1A2EB0C03934313EACC130BD12F
:1015D00050F8042B51F8043B9A4209D1A2EB0C03BA
:1015E000934313EACC13DBD04FF00000704700BFE9
:1015F000D01A01BAB1FA81F101F0180122FA01F012
:10160000CB40C1F12001DBB2C0B2C01A2CFA01F309
:10161000D11A914311EAC311E6D17047014918204C
:10162000ABBEFEE72600020070475FEA400C08BF31
:1016300091F0000F4FEA8C234FEAC12243EA515147
:101640004FEA1C5018BF00F5F0404FEA300018BFB9
:1016500041F000415FEA6C5C00F02980BCF1FF3F83
:1016600008BF40F080407047130C06BF12044FF0D3
:10167000100C4FF0000C130E04BF12020CF1080CFA
:10168000130F04BF12010CF1040C930F04BF92005E
:101690000CF1020CD30F04BF52000CF1010C1146E7
:1016A0004FF00002A0F11F00A0EB0C00704711F0FA
:1016B000004F08BF704731F000413FF4D5AF0B0C2D
:1016C00006BF09044FF0100C4FF0000C0B0E04BFC6
:1016D00009020CF1080C0B0F04BF09010CF1040CFA
:1016E0008B0F04BF89000CF1020CCB0F04BF490023
:1016F0000CF1010CCCF12003A0EB0C0022FA03F357
:1017000002FA0CF241EA030100F10100704720F0F7
:101710007F4C80EA030023F07F47ACEB070303F51F
:101720007C5300F0004003F1FF032DE980494FEAAC
:10173000154B09B44FEA144325EA0B4E24EA03483B
:101740000FF2042606EB132749083E785FEA3202BF
:1017500003FB0667C7F5000707FB06F64FEA543799
:101760004FEAD64606F1020607FB066CCCF1005C98
:101770004FEA1C472CEA074C07FB06F40CFB06F566
:1017800004EB15464FEA961634BF00204FF0004098
:101790004FEAD13706FB07FC4FEA1C4C0CFB0BF75A
:1017A000D21B03FB0CF761EB07010CFB0EF7B0EB50
:1017B000074072EB17420CFB08F734BFA2EB07425D
:1017C000B2EB074261EB17414FEA0C444FEA910735
:1017D00006FB07FC4FEA1C4C0CFB0BF7B0EBC740B9
:1017E00072EB573203FB0CF734BFA2EBC742B2EBEC
:1017F000C74261EB57310CFB0EF7B0EBC70072EB41
:1018000057720CFB08F734BFA2EBC702B2EBC7025A
:1018100061EB5771039F4FEA816141EA921104EB3A
:10182000CC044FEAD1374FEA826206FB07FC42EA5A
:1018300090124FEA80604FEA1C4C0CFB0BF7D21B56
:1018400003FB0CF761EB07010CFB0EF7B0EB074055
:1018500072EB17420CFB08F734BFA2EB0742B2EB66
:10186000074261EB17414FEA8C554FEA910704EBB1
:101870009C2406FB07FC4FEA1C4C0CFB0BF7B0EB5F
:10188000C74072EB573203FB0CF734BFA2EBC742E1
:10189000B2EBC74261EB57310CFB0EF7B0EBC70060
:1018A00072EB57720CFB08F734BFA2EBC702B2EB26
:1018B000C70261EB577115EB4C254FEA816141EA94
:1018C00092114FEA82624FEAD13742EA901206FB48
:1018D00007FC44F100044FEA80604FEA1C4C0CFB0B
:1018E0000BF7D21B03FB0CF761EB07010CFB0EF7A8
:1018F000B0EB074072EB17420CFB08F734BFA2EBCA
:101900000742B2EB074261EB174115EB1C154FEA9A
:10191000813141EA92414FEA823242EA90424FEAF3
:1019200080304FEA0C7644F1000448EA03434EEA63
:101930000B484FF0000EB2EB080C71EB030724BF0D
:10194000624639464EEB0E0E4FF0000B0018524126
:1019500049414BEB0B0BB2EB080C71EB03077BF12E
:10196000000B24BF624639464EEB0E0E4FF0000BC3
:101970000018524149414BEB0B0BB2EB080C71EBD9
:1019800003077BF1000B24BF624639464EEB0E0E77
:1019900051EA020718BF46F0010616EB0E7655F124
:1019A000000254F1000103D5BDE88901BDE80088BB
:1019B000BDE88901BDE80048B619524141EB01017B
:1019C000A3F10103704780807F7E7D7C7B7A7978EC
:1019D000777676757473727171706F6E6E6D6C6CF4
:1019E0006B6A6A6968686766666564646363626196
:1019F0006160605F5F5E5E5D5D5C5C5B5B5A5A5917
:101A00005958585757565655555554545353525282
:101A10005251515050504F4F4F4E4E4D4D4D4C4CDA
:101A20004C4B4B4B4A4A4A49494948484847474723
:101A30004746464645454544444444434343434260
:101A4000424242414141002B9C4630D477002BD08A
:101A50001CB54FEA370703B44FF010004FF01001E8
:101A6000BAF1000F06D0BCF1000FDCBF40F0080057
:101A700040F008014FF000000FBCBDE810400BF132
:101A8000010BBBF1010F08BF5FEA170722BF12F17C
:101A9000010211F101014FF0004143F1000300F098
:101AA000004043EA00007047F9D35708D0E746EA00
:101AB000064613F1400F4FEA16461FDD13F1200FC3
:101AC000DFBF16430A46002120335B42BED0C3F17C
:101AD000200746EA064602FA07F74FEA164646EAA4
:101AE0000706C3F1200722FA03F201FA07F721FAE9
:101AF00003F14FF0000342EA0702A7E746EA0206B5
:101B000046EA06464FEA164646EA0106BCBF46EAE2
:101B10000646360C4FF000034FF000024FF0000174
:101B200094E72DE9804C9A46934670B491E83800CA
:101B300007C831EA400C48BF34EA430C03D5FFF72D
:101B4000E6FDFFF780FFF0BCBDE8008C2DE9804C7E
:101B50009A46934670B491E8380007C810F0804F59
:101B600008BF13F0804F03D100F005F8FFF76BFFBB
:101B7000F0BCBDE8008C20F07F4780EA030023F032
:101B80007F4C07EB0C03A3F57C5300F00040A3F15E
:101B9000FE0392F0000F00F0B38095F0000F00F00C
:101BA00077802DE901494FEA11404FEA144621EAB6
:101BB000004800FB06FC24EA064708FB06F607FB84
:101BC00008F800FB07F718EB06484CEB164C4FEAF9
:101BD000124B18EB07484FEA15464CEB174022EA28
:101BE0000B4E0BFB06FC25EA06470EFB06F607FB31
:101BF0000EFE0BFB07F71EEB064E4CEB164C4FF0A0
:101C000000061EEB074E4CEB174B18EB0B0840F190
:101C1000000018EB0E0B58EB000840F100008F1A83
:101C20004FF000013CBFC943661B14BFB5EB040C69
:101C300000213CBFC943F61B4FEA17444EEA8E0E03
:101C400027EA04454FEA1C4704FB07622CEA074CCD
:101C500005FB07F70CFB05F604FB0CFC16EB07462F
:101C600042EB174216EB0C4642EB1C421BEB0606FE
:101C700058EB0202414146EA9E0601D5BDE80189C2
:101C8000B619524141EB0101A3F10103BDE80189FD
:101C90004FEA14454FEA114724EA054621EA074C6A
:101CA00005FB07F406FB07F70CFB06F105FB0CFC34
:101CB00011EB074144EB17444FEA124711EB0C417B
:101CC00044EB1C4422EA074C05FB07F206FB07F72E
:101CD0000CFB06F605FB0CFC16EB074642EB174225
:101CE00016EB0C4642EB1C456A1854F1000148BF44
:101CF0007047B619524141EB0101A3F1010370474E
:101D000095F0000F37D04FEA11424FEA144721EA0D
:101D1000024624EA074C02FB07F106FB07F70CFB1F
:101D200006F402FB0CFC14EB074441EB17414FEAAD
:101D3000154714EB0C4441EB1C4125EA074C02FB10
:101D400007F506FB07F70CFB06F602FB0CFC16EB8F
:101D5000074645EB174516EB0C4645EB1C4212199E
:101D600051F1000148BF7047B619524141EB0101E2
:101D7000A3F1010370474FEA14454FEA114724EAE3
:101D8000054621EA074C05FB07F106FB07F70CFBAC
:101D900006F24FF0000605FB0CFC12EB074241EB8C
:101DA000174112EB0C4251EB1C4148BF704792188F
:101DB00041EB0101A3F101037047FEE710B50428D0
:101DC0000ADD202808D0212806D0222804D18878CE
:101DD00000F0010004F082F8002010BD00207047E0
:101DE00010B500220449054803F0B2F8044903483D
:101DF00003F0A8F8002010BD601B00209C120020FA
:101E00006017002070B50D4604460146054803F0F2
:101E100099F8044803F07AF82046296803F0FAFF9D
:101E2000002070BD9C120020094A10B5D2F8B822DB
:101E3000D2F814220AB1012010BD0A460146044816
:101E400003F086F8BDE81040014803F0DFB8000059
:101E50009C120020704772B6FEE770472DE9F84FDC
:101E6000DFF8B8910024A9F1040B23460F2709F1EC
:101E7000040AABF1040EC9E00125A5402A40AA429C
:101E80007DD1674ED1F804C0ACEB0608B44532D022
:101E900014DCBCF1030F3AD009DCBCF1000F2AD0EE
:101EA000BCF1010F1CD0BCF1020F31D11DE0BCF11F
:101EB000110F17D0BCF1120F2AD119E0B8F5881F05
:101EC00019D006DCB8F5803F15D0B8F5801F1FD1BA
:101ED00011E0B8F5001F0ED0B8F5041F18D10AE0C4
:101EE000CB6815E0CB681B1D12E0CB6808330FE010
:101EF000CB680C330CE08B682BB1012B4FF008033F
:101F000003D0456104E0042302E0056100E0002302
:101F1000FF2A01D8064601E000F104064FEA8405D5
:101F200001D9A5F12005D6F8008007FA05FC28EABA
:101F30000C0803FA05F548EA0508C6F800804D6864
:101F4000ED0062D5374DAE6946F00106AE61AD6970
:101F500024F0030605F001050095334D06EB050C52
:101F6000DCF80850A607360F07FA06F825EA080538
:101F7000DFF8B880404503D14FF0000817E044E097
:101F8000DFF8AC80404502D14FF001080FE0DFF8E8
:101F9000A480404502D14FF0020808E0DFF89880A5
:101FA000404502D14FF0030801E04FF0040808FA61
:101FB00006F848EA0508CCF808804D68D9F80060B2
:101FC000ED024D4601D5164300E096432E604D6864
:101FD000DAF80060AD02554601D5164300E096439D
:101FE0002E604D68DBF80060AD035D4601D51643F9
:101FF00000E096432E604D68DEF80060ED03754604
:1020000001D5164300E096432E60641C0D682A46F5
:10201000E5407FF431AFBDE8F88F000008040140CF
:1020200000001110001002400000014000080140B3
:10203000000C01400010014000140140C26821EA78
:1020400002030A4043EA0241016170470AB101619B
:1020500070470904FBE700000148806870470000F2
:102060006000002002488168027811448160704756
:1020700060000020074810B5016841F010010160C0
:10208000032000F07BF8022000F006F800F024F8AE
:10209000002010BD0020024070B50D4D04464FF4E5
:1020A0007A712878B1FBF0F00A490968B1FBF0F0C9
:1020B00000F0DCFF48B9102C07D200222146501E48
:1020C00000F03CF800206C6070BD012070BD000085
:1020D000600000206C0000200F4808B5816941F0C5
:1020E00001018161816901F001010091C16941F043
:1020F0008051C161C069002200F0805000900F2122
:10210000901E00F01BF80548416821F0E06141F0A5
:102110008061416008BD00000010024000000140E5
:10212000002809DB00F01F020121914040098000D6
:1021300000F1E020C0F8001170470000F0B40E4B31
:102140001B680C46C3F30223C3F10705042D00D915
:102150000425191D072901D2002300E0DB1E0126FA
:1021600006FA05F1491E214099409E40761E164010
:102170003143F0BC04F082BA0CED00E0064900F0F7
:10218000070208684FF6FF03184040EA0220034A9E
:1021900010430860704700000CED00E00000FA05F5
:1021A00010B50C0607D501F0070101EB810100EB2A
:1021B000C100103005E001EB810100EBC10000F52A
:1021C000A87099B232B1012202730181190C4181C8
:1021D000002010BD00220273C180F9E7704701EBB7
:1021E000810200EBC202D0F8D402526A03F0BDB8FB
:1021F00001EB810200EBC202D0F8D402D2F86421D4
:1022000003F016B970B504460B0601F0070000EBA9
:10221000800104EBC1014FF001024FF0000502D52F
:102220004A74103103E081F8515101F5A87108702A
:1022300094F89002012808D084F89022206803F0D6
:1022400061FE84F89052002070BD022070BD70B510
:10225000044601F00F002279904201D9012070BD9F
:102260000B0601F0070000EB800104EBC1014FF009
:1022700001024FF0000502D54A74103103E081F8E5
:10228000515101F5A8718D70087094F890020128E1
:1022900008D084F89022206803F0D1FE84F8905290
:1022A000002070BD022070BD2DE9F05F04685FEA78
:1022B000424C0B788D69B4F850C04FF000064BF6D5
:1022C0008F7948F2800A48F68F7B48F2C00E4FF4AF
:1022D00080672AD54FF0020808EBC308C44407EB17
:1022E0004C07E45BC4F30904A54203D32D1B8D61A5
:1022F00001D00BE08E61066836F8235005EA090527
:1023000085F4005545EA0A0526F82350520609D5FA
:102310000D78036833F8252002EA0B0242EA0E0228
:1023200023F8252084B30A8929E04FF0060808EB3A
:10233000C308C44407EB4C07E45BC4F30904A5429B
:1023400003D32D1B8D6101D00BE08E61066836F83A
:10235000235005EA090585F4005545EA0A0526F8E3
:102360002350520609D40B78056835F8232002EA79
:102370000B0242EA0E0225F823202CB14A89496952
:102380000068234604F034F92046BDE8F09F2DE9AB
:10239000F05F054600680C465FEA426C16468B69A2
:1023A0002278B0F850C048F68F774CF280094FF48D
:1023B000004B4FF6FF7E4FF4806A4FF0000172D55C
:1023C0004FF0020808EBC208E0440AEB480C30F872
:1023D0000C00C0F30900834211D91B1AA3610FD06E
:1023E000730407D52E6836F822303B4043EA0903D0
:1023F00026F8223094F82420012A47D052E1A16126
:10240000607810B1012813D01AE02868B0F8503075
:10241000184400EB0210B0F80424C2F30902A0F83B
:102420000424B0F8042442F40042A0F8042407E095
:102430002868B0F85030184400EB0210A0F80414DB
:102440006278286812B1012A11D018E0B0F8501053
:102450000844217800EB0110B0F80C14C1F3090115
:10246000A0F80C14B0F80C1441F4004105E0B0F8E9
:1024700050201044227800EB0210A0F80C142178B0
:102480002846FFF7ACFE700472D40BE16269024487
:102490006261E2690244E2612369226A9A4203D3DB
:1024A0001846111A04E03EE084F824100AB11046E0
:1024B0002162617811B1012929D031E02968B1F890
:1024C00050201144227801EB0211B1F80424C2F328
:1024D0000902A1F8042401F204413E2807D9420967
:1024E000C30600D1521E0B884BEA822207E048B196
:1024F0004208C30700D0521C0B880EEA8222134305
:102500000B800DE00A8842F400420A8008E0296846
:10251000B1F850201144227801EB0211A1F8040413
:1025200083B22289BAE04FF0060808EBC208E04403
:102530000AEB480C30F80C00C0F30900834211D3B9
:102540001B1AA3610FD0730407D42E6836F822300B
:102550003B4043EA090326F8223094F82420012A5C
:1025600051D09FE0A161607818B1012814D01BE020
:102570003FE02868B0F85030184400EB0210B0F883
:102580000424C2F30902A0F80424B0F8042442F49D
:102590000042A0F8042407E02868B0F8503018443E
:1025A00000EB0210A0F804146278286812B1012A26
:1025B00011D018E0B0F850100844217800EB011059
:1025C000B0F80C14C1F30901A0F80C14B0F80C1405
:1025D00041F4004105E0B0F850201044227800EBAF
:1025E0000210A0F80C1421782846FFF7F8FD7004BB
:1025F00058D42278296831F82200384040EA09008E
:1026000021F822004EE0626902446261E2690244FC
:10261000E2612369226A9A4203D31846111A2162A1
:1026200004E00AB11046216284F824106278296817
:1026300012B1012A28D02FE0B1F85020114422789D
:1026400001EB0211B1F80C24C2F30902A1F80C2429
:1026500001F20C413E2807D94209C30600D1521E9F
:102660000B884BEA822207E048B14208C30700D03A
:10267000521C0B880EEA822213430B800CE00A885E
:1026800042F400420A8007E0B1F850201144227859
:1026900001EB0211A1F80C04628983B26169286818
:1026A00003F0C4FF2278296831F8220048F6BF738E
:1026B000184080F0300048F28003184321F82200CF
:1026C0000020BDE8F09F01F0070101EB810100EB64
:1026D000C100D0F86C0170472DE9F04104460F06A7
:1026E00001F0070000EB800104EBC1014FF001068F
:1026F0004FF0000502D54E74103103E081F85151BE
:1027000001F5A871022B08700A61CB7000D10D7120
:1027100094F89002012809D084F89062206803F0B0
:1027200097F9284684F89052BDE8F0810220FBE733
:1027300010B501F0070404EB840100EBC101C1E90D
:1027400059230022C1F86C2181F8512181F85041B0
:10275000006801F5A87103F0C7FC002010BD70B53A
:1027600004460D4601F007002179884201D9012075
:1027700070BD29064FF000064FF0010206D500EBB0
:10278000800104EBC1014A74103107E005EB8501BB
:1027900004EBC10181F8516101F5A8718A700870DC
:1027A00094F89002012807D084F89022206803F062
:1027B00082FC680702D006E0022070BD04F5267195
:1027C000206803F03AFC84F89062002070BD10B5D8
:1027D00001F0070404EB840100EBC101C1E9092306
:1027E000012281F834200B630023CB624A7401F884
:1027F000104F006803F078FC002010BD1FB50446A0
:10280000006803F0F1FE010403D5204601F04AF907
:102810001FBD41050DD5206830F8441F21F48061AB
:102820000180204600F000F90021204600F017F951
:102830001FBD410405D5206830F8441F21F48041B4
:1028400074E0810405D5206830F8441F21F400515C
:102850006CE0C10414D5206830F8401F21F0040159
:102860000180206830F8401F21F0080101802046D7
:1028700000F0EDF8206830F8441F21F4805155E055
:10288000010540D5D4F800200020694632F82030F8
:1028900021F81030401CC0B20828F7D332F8400F9E
:1028A00040F001001080206830F8402F22F0010233
:1028B00002802068B0F844205205FBD530F8442F40
:1028C00022F4806202800020236831F8102023F86F
:1028D0002020401CC0B20828F6D3206830F8401FE2
:1028E00041F008010180206830F8441F21F40061A4
:1028F0000180206830F8401F41F00401018020462B
:1029000000F0E0F81FBD810509D5206830F8441FAC
:1029100021F400710180204600F09DF81FBDC00524
:10292000FCD5206830F8441F21F4807101801FBD60
:102930002DE9F041040004D094F89102002518B16B
:1029400007E00120BDE8F08184F89052204600F0B5
:102950004DF8032084F891026571206803F066FB4E
:1029600094E80F0003F0CCFA022698BB00212068FF
:1029700003F054FE70BB002001270BE000EB800148
:1029800004EBC1014F740874CD740D624D62401C9C
:10299000C0B28D6221798142F0D8002012E000BFE0
:1029A00000EB800104EBC10181F8515181F8500125
:1029B00081F85351C1F86051C1F86451401CC0B254
:1029C000C1F8685121798142EAD894E80F0003F0F8
:1029D00024FB10B184F89162B3E7657384F89172B7
:1029E000206803F018FB0020ACE7000008B5006881
:1029F0000B49884212D10B48C16941F40001C16101
:102A0000C069002200F40000009001211420FFF7AB
:102A100095FBBDE808401420FFF782BB08BD00000D
:102A2000005C00400010024070B50446807901252A
:102A3000022801D0FFF70FFA2946D4F8D40202F099
:102A4000DFFDD4F8D402BDE8704002F09BBDD0F8A1
:102A5000D40202F0BFBDD0F8D40202F0C5BD10B55B
:102A6000044690F8900201280AD0012084F89002D0
:102A70006173206803F0D4FD002084F8900210BD3B
:102A8000022010BDD0F8D42200F52671104602F0C5
:102A9000C3BD10B5044690F89002012810D0012063
:102AA00084F89002206803F090FD01212046FFF792
:102AB00095FB206803F0ADFA002084F8900210BD69
:102AC000022010BD10B50446D0F8D40202F0E3FD98
:102AD000A07A002804D00348016841F00601016093
:102AE00010BD000010ED00E02DE9F8430546007828
:102AF000354CC00754D0E0690026C00008D4E06916
:102B000040F08050E061E069012600F080500090C4
:102B10002E480168C90512D40168804641F48071CD
:102B20000160FFF799FA074605E000BFFFF794FA46
:102B3000C01B642823D8D8F80000C005F6D5206A49
:102B400010F4407021D0A98801F4407181421CD05A
:102B5000206A1F49012220F440700A6000220A60A6
:102B60002062C00711D0FFF777FA074641F2883894
:102B700008E000BFFFF770FAC11B414502D90320EE
:102B8000BDE8F883206A8007F4D5206A696820F4DC
:102B90004070084320621EB1E06920F08050E0617F
:102BA0002878800705D56068A96820F4404008436C
:102BB00060602878C00605D56068E96820F4800068
:102BC000084360600020DBE7001002400070004016
:102BD000400442422DE9F0470F46050061D0434EC4
:102BE000306800F00700B84209D2306820F00700D2
:102BF00038433060306800F00700B84251D128688F
:102C00003B4C810712D5400703D5606840F4E06073
:102C100060602878000703D5606840F46050606009
:102C20006068A96820F0F000084360602878C00759
:102C300028D06868012810D02168022810D08907A0
:102C400000292EDA616821F0030101436160FFF77A
:102C500003FA804641F288390DE021688903EFE7E5
:102C60008901EDE7FFF7F8F9A0EB0801494502D922
:102C70000320BDE8F0876068696800F00C00B0EBE5
:102C8000810FEFD1306800F00700B8420BD93068EF
:102C900020F0070038433060306800F00700B84289
:102CA00001D00120E5E72878400705D56068E9688C
:102CB00020F4E060084360602878000706D560686B
:102CC000296920F4605040EAC100606000F018F803
:102CD0006168084AC1F30311515CC84006490860A5
:102CE00006480068FFF7D8F90020C2E7002002403C
:102CF000001002409D6800086C0000206400002065
:102D00000E4A51680E4801F00C03042B11D0082B19
:102D10000FD10C48C1F38343C903C05C0AD5516885
:102D2000084AC1F34041921E515C054A5043B0FB32
:102D3000F1F070470449484370470000001002401A
:102D400000127A008D68000800093D002DE9F84F57
:102D5000040070D02078C04DC00749D06868C0F327
:102D60008100012807D06868C0F38100022809D1DA
:102D70006868C00306D52868800339D560680028D4
:102D8000E7D035E06068B0F5803F0BD010B1B0F50A
:102D9000A02F11D0286820F480302860286820F403
:102DA000802002E0286840F480302860606890B19C
:102DB000FFF752F906460AE0286840F480202860B0
:102DC000F0E700BFFFF748F9801B642873D8286834
:102DD0008003F7D50CE0FFF73FF9064605E000BF9A
:102DE000FFF73AF9801B6428F0D828688003F7D4ED
:102DF00020789A4E80074FF001094FF0000839D52E
:102E0000686810F00C0F07D06868C0F381000228D2
:102E100009D16868C00306D42868800714D52069E2
:102E2000012808D110E02069B0B1C6F80090FFF782
:102E300013F9074605E00AE1FFF70EF9C01B022867
:102E4000C4D828688007F7D52868616920F0F800A1
:102E500040EAC10028600DE0C6F80080FFF7FCF8EA
:102E6000074604E0FFF7F8F8C01B022823D82868BB
:102E70008007F7D4207800072CD57948A169D9B10B
:102E8000C0F80090FFF7E8F8074604E0FFF7E4F821
:102E9000C01B02280FD8686A8007F7D571484FF425
:102EA000FA510068B0FBF1F0009000BF0098411E9D
:102EB0000091FAD20EE080E0C0F80080FFF7CCF875
:102EC000074604E0FFF7C8F8C01B022875D8686AF7
:102ED0008007F7D42078400760D5E8690027C00054
:102EE00008D4E86940F08050E861E869012700F003
:102EF000805000905C480168C90513D4016883467E
:102F000041F480710160FFF7A7F8824606E000BF38
:102F1000FFF7A2F8A0EB0A0064284ED8DBF8000007
:102F2000C005F5D5E06801280AD008B1052813D0FE
:102F3000286A20F001002862286A20F0040002E0DC
:102F4000286A40F001002862E06841F2883B98B1AD
:102F5000FFF782F882460BE0286A40F004002862FE
:102F6000EEE700BFFFF778F8A0EB0A0159455AD801
:102F7000286A8007F6D50CE0FFF76EF8824605E078
:102F8000FFF76AF8A0EB0A0159454CD8286A800778
:102F9000F6D41FB1E86920F08050E861E06988B399
:102FA0006968C1F38101022944D00228C6F8608013
:102FB00004D0FFF751F8044638E034E0FFF74CF84E
:102FC000074604E0FFF748F8C01B02282BD8286802
:102FD0008001F7D4206AB0F5803F05D16868A16808
:102FE00020F4003008436860D4E9080108436968A8
:102FF00021F4741108436860C6F86090FFF72CF85C
:10300000044606E025E000BFFFF726F8001B022873
:1030100009D828688001F7D51BE000BFFFF71CF82E
:10302000001B022802D90320BDE8F88F2868800120
:10303000F4D40EE00128F7D06868226A00F48031E9
:10304000914204D1616A00F47010884201D00120DD
:10305000EAE70020E8E700000010024000004242DA
:10306000800442426C0000200070004010B5401EF9
:10307000B0F1807F01D3012010BD4FF0E0246061EA
:103080000F21601703F0FAFA0020A06107202061E9
:10309000002010BDFEE70000F0B500230A24302513
:1030A00037261F4611E000BFB4EB107F02D905EBB5
:1030B000107C01E006EB107C01F813C001EB430C1F
:1030C00000015B1C8CF80170DBB29342ECD3F0BDC5
:1030D000012251030148FEF7B9BF00000010014072
:1030E0004FF400510148FEF7A9BF00000010014055
:1030F0002DE9F04186B00024204800940194029408
:103100000394816941F010018161816901F010012E
:103110000491816941F020018161816901F0200100
:103120000491816941F0040181618069144F00F0CC
:1031300004004FF400550490002229463846FEF75B
:1031400085FFDFF84080002202214046FEF77EFF27
:103150000126CDE90056022569463846CDE90245EB
:10316000FEF77CFECDE9005669464046CDE90245B2
:10317000FEF774FE06B0BDE8F081000000100240CA
:10318000001001400008014010B500220F4910480E
:1031900002F0C4F808B1FEF75EFE0E490C4802F0DA
:1031A000A0FA08B1FEF757FE0B49094801F0C2FE2C
:1031B00008B1FEF750FE064802F0E8FA002803D0F6
:1031C000BDE81040FEF747BE10BD00000000002023
:1031D0009C1200204C01002050000020FEE7FEE77A
:1031E0002DE9F0470600DDE90897DDF828A002D0B8
:1031F0000AB1402B03D24FF0FF30BDE8F087DFF873
:10320000D88098F80000082802D36FF00100F4E796
:1032100072B600244FF0A53503E000BF42F82450F9
:10322000641C9C42FAD32D4D00EB800405EBC404D2
:1032300002EB830525F007054FF0807C45E9026C21
:10324000DFF89CC045F80CCC4FF0123C45F810CC90
:103250004FF0033C45F814CC4FF0023C45F818CC35
:103260004FF0013C45E9081C4FF0113C45F824CCD7
:103270004FF0103C45F828CC4FF0093C45F82CCCD9
:103280004FF0083C45F830CC4FF0073C45F834CCC3
:103290004FF0063C45F838CC4FF0053C45F83CCCA7
:1032A0004FF0043C45F840CD2560C4E9012320736C
:1032B00084F80D900122A2730022226107B905272C
:1032C0006761C4F824A0A761C4E90761411C88F8BC
:1032D000001062B691E7000088010020B0270020AE
:1032E000ED39000810B560B172B608494A6832B1CC
:1032F0004A68106149680420887300F0C5FB62B613
:1033000010BDBDE8104000F0BFBB000088010020E8
:103310000348416811B14068007B7047FF20704747
:103320008801002030B50E490978884201D3002079
:1033300030BD0C4900EB800001EBC00200210846C3
:103340004FF0A534936806E0556855F82050A54223
:1033500003D1401C491C8342F6D8880030BD0000D0
:1033600088010020B0270020014800787047000045
:103370008801002005490978884201D30020704760
:10338000034900EB800001EBC0007047880100207A
:10339000B0270020014880687047000088010020A5
:1033A00070B572B60024184884600470651EC5604C
:1033B000447044601548214601EB810200EBC202D3
:1033C000491CC9B294730829F6D30F216FF001008C
:1033D00003F064F90E21284603F060F90C484FF41D
:1033E0007A710068B0FBF1F1491EB1F1807F09D21A
:1033F0004FF0E02671610F21284603F04FF9B461C8
:103400000720306162B670BD88010020B02700201F
:103410006C00002010B5002072B60146114B03F17C
:1034200020025C5C24B1491C89B22029F9D313E045
:10343000012058540C4800EB41105188491C89B2B6
:10344000518093885B1E938093685B1C9360D38844
:10345000994200D9D18010B91169491C116162B635
:1034600010BD0000F02C0020F028002070B548B1FD
:103470001449884206D301F58062904202D2401A74
:10348000C10601D0022070BDC0F34F1472B60E4DBC
:10349000285DA8B10B48202100EB4410FCF7E2FFA7
:1034A0000020285505F120004188491E418081886F
:1034B000491C8180C168491CC16062B6002070BD92
:1034C00062B6DFE7F0280020F02C002010B572B6BD
:1034D00014220249FCF794FF62B610BD102D0020A3
:1034E00010B572B64FF480610948FCF7DDFF20216A
:1034F0000848FCF7D9FF074814212030FCF7D4FF17
:103500000448202120300180818062B610BD000077
:10351000F0280020F02C002008B140787047FF20F0
:103520007047000070B5040011D072B600252570F8
:10353000FF20607065600120207504F108004FF0E5
:103540000B0201B902A1FCF7D6FFE57462B670BDAB
:10355000556E6E616D656400002800D0007870477C
:1035600070B50D46040012D0207D80B1FEF774FDC9
:10357000064672B6207860B162B6ADB1681C15D04F
:10358000FEF76AFD801BA84210D3022070BD032005
:1035900070BD012020706068401C6060FFF7B8FEBD
:1035A000607062B6002070BD012070BDFFF7B0FEF4
:1035B000FF28DED000F074FADBE710B5040007D076
:1035C000207D28B172B6207820B162B6012010BDEE
:1035D000032010BD012020706068401C6060FFF770
:1035E00097FE607062B6002010BD10B504000CD0CC
:1035F000207D50B172B6207830B1FFF789FEFF28E8
:1036000005D06178814202D062B6032010BD00204F
:103610002070FF20607062B6002010BD10B504005D
:103620000CD072B64FF48071FCF73EFF0020A4F876
:103630000401A4F80601A4F8080162B610BD002830
:1036400001D0B0F8080170472DE9F0411E4615463B
:103650000F4604002AD0002F28D0202F26D8002D76
:1036600024D0082D22D872B64FF48071FCF71CFFCD
:10367000A4F80071A4F802510025A4F80451A4F89C
:103680000651A4F80851C4F80C51C4F81051012097
:10369000C4F8145184F824013EB10B22314604F5DC
:1036A0008C70FCF728FF84F8235162B6BDE8F081E6
:1036B000002806D0B0F80811B0F80201814201D309
:1036C000012070470020704710B50B4680B17BB1D8
:1036D00072B6B0F8081169B1B0F80021B0F806115F
:1036E00000EB41111846FCF746FE62B6002010BD03
:1036F000042010BD62B6022010BD2DE9F041154630
:103700000F46040036D094F8240188B387B3FEF73F
:10371000A3FC064672B6B4F8080150B3B4F8002111
:10372000B4F8060104EB40113846FCF724FEB4F867
:103730000011B4F8060104EB4010FCF793FEB4F856
:103740000601B4F80211401CB0FBF1F201FB1200BB
:10375000A4F80601B4F80801401EA4F80801D4F842
:103760001001401CC4F8100162B60020BDE8F081D1
:1037700000E001E00420F9E762B645B1681C08D01A
:10378000FEF76AFC801BA84203D30320EEE7022069
:10379000ECE7FFF7BDFDFF28BCD000F081F9B9E7E9
:1037A0002DE9F04115460F4604002FD094F824016E
:1037B00060B35FB3FEF750FC064672B6B4F808116A
:1037C000B4F80201814223D2B4F80021B4F8040114
:1037D000394604EB4010FCF7CEFDB4F80401B4F810
:1037E0000211401CB0FBF1F201FB1200A4F804012D
:1037F000B4F80801401CA4F80801D4F80C01401CDE
:10380000C4F80C0162B60020BDE8F0810420FBE79B
:1038100062B66DB1681C12D0FEF71EFC801BA84278
:103820000DD3D4F81401401CC4F814010320EBE7B5
:10383000D4F81401401CC4F814010120E4E7FFF798
:1038400067FDFF28B9D000F02BF9B6E710B50A4C98
:10385000606830B16068807B022802D16168012015
:10386000887300F00BF820B10221817341698161F6
:103870006060606810BD000088010020F0B5204D38
:10388000FF21002004462A781E4B0EE004EB84063C
:1038900003EBC606B77B012F01D0022F03D1767B45
:1038A0008E4200D23146641CE4B29442EED3FF292A
:1038B00002D00124EE681FE06868F0BD371997FB5D
:1038C000F2FC02FB1C77FFB207EB870C03EBCC0C7E
:1038D0009CF80EE0BEF1010F02D0BEF1020F09D13B
:1038E0009CF80DC08C4505D107EB870003EBC000A9
:1038F0003E4603E0641CE4B29442DFD9EE60F0BDC2
:1039000088010020B027002008B1006870474FF000
:10391000FF30704770B5040015D0002A13DD9142C6
:1039200000DD114672B621600025C4E901250120A1
:10393000E560207733B10B22194604F11000FCF743
:10394000DAFDE57662B670BD48B1017F39B172B675
:1039500001684268914204DB62B60220704703208E
:1039600070470168491C01608168491C816062B62A
:103970000020704770B50D46040011D0207F78B14B
:10398000FEF76AFB064672B6206800280ADD20684A
:10399000401E2060E068401CE06062B6002070BD00
:1039A000032070BD62B635B1681C06D0FEF754FB2B
:1039B000801BA84201D3012070BDFFF7A9FCFF289E
:1039C000E1D000F06DF8DEE710B5074C2078002854
:1039D00008D072B601206070FFF738FF606062B6F1
:1039E00000DFFEE710BD00008801002072B6054828
:1039F000416811B140680521817362B600F044F856
:103A0000FEE7000088010020F0B41D48417800293D
:103A100033D08168491C8160002529460378194EFE
:103A200018E000BF01EB810206EBC202947B042C7C
:103A30000ED1146914B1641E146109D10124947368
:103A400044682CB1527B4468647BA24200D20125B9
:103A5000491CC9B29942E5D3416849B141688969B5
:103A600019B141688A69521E8A614068806908B14B
:103A7000002D02D0F0BC00F007B8F0BC7047000089
:103A800088010020B027002004494FF080500860D2
:103A9000BFF34F8FBFF36F8F7047000004ED00E05E
:103AA000FFF7F2BF2DE9F84F044640F68F7B48F64A
:103AB0000F794FF480684FF0000ABDE1B0F8441070
:103AC00011F00F0539D030F8256031047ED530F87B
:103AD000251001EA0B0141F0800120F8251005EBCB
:103AE000850004EBC00797F85C0107F5A87700286C
:103AF0006DD0F87802286BD03978226832F821002E
:103B000048F68F73184048F2C003184322F821008A
:103B10003978206830F82120B0F8503052047DD533
:103B2000022202EBC1015A1808EB4201415A8905F1
:103B3000890D009173D03A89DDE0C9062BD4018844
:103B400001EA090141F400410180206804F11005F7
:103B5000B0F85030217C022202EBC1015A1808EB68
:103B60004201405AC0F30900E062616A08446062A1
:103B700000212046FEF733FB607B00289DD0A8691A
:103B800000289AD1607B216840F08000A1F84C00A9
:103B900084F80DA050E1018804F5A8750A0521D527
:103BA000B0F850202B78062101EBC3010A4408EB42
:103BB0004201405A04F52671C0F30903EB61EA881B
:103BC000206802F015FD2068018802E0AEE06EE09A
:103BD0007EE001EA0B0141F0800101802046FEF702
:103BE00051FF29E10904D5D5018801EA0B0141F013
:103BF000800101802068B0F850202B78062101EB6D
:103C0000C3010A4408EB4201405A83059B0DEB6156
:103C100010D0696971B1EA88206801E05FE05DE079
:103C200002F0E6FCE9696869084468610021204601
:103C3000FEF7DEFA216808880205ABD4C0F3013034
:103C40000328A7D0B1F850000844B0F80C14C1F311
:103C50000901A0F80C142A6900F20C403E2A09D987
:103C60005109D20600D1491E02884FF4004343EAAD
:103C7000812109E0B2B15108D20700D0491C028865
:103C80004FF6FF7303EA81210A4302802168088806
:103C90004BF68F72104080F4405048F2800210437F
:103CA0000880C9E0018841F400410180EEE7206806
:103CB000B0F850203B78062101EBC3010A4408EB21
:103CC0004201415A8905890D009118D0FA8812E005
:103CD000324639462046FEF7E7FA00900FE006220A
:103CE00002EBC1015A1808EB4201415A8905890DBE
:103CF000009104D07A897969009B02F079FCF86917
:103D000000990844F8617969009808447861B869B5
:103D100018B139690098814204D939782046FEF7F4
:103D200067FA03E03946206802F0DEF930062ED546
:103D300005EB850004EBC001206830F8252002EA7D
:103D4000090242F4004220F82520C87C10310128E5
:103D50001ED0F0056CD42068B0F850300D780222E7
:103D600002EBC5021A4408EB4202805A8A69C0F38A
:103D70000900824255D9121A8A6154D04A69024414
:103D80004A61CA691044C861206802F0ADF953E085
:103D9000C1F818A0087B524608B3700620D54878B1
:103DA00010B1012812D03AE02068B0F85020104439
:103DB0000A7800EB0210B0F80424C2F30902A0F85C
:103DC0000424B0F8042442F4004206E02068B0F86D
:103DD000503018440B7800EB0310A0F804241EE0C8
:103DE0004B78206813B1012B11D018E0B0F85020A7
:103DF00010440A7800EB0210B0F80C24C2F3090258
:103E0000A0F80C24B0F80C2442F4004205E0B0F80D
:103E1000503018440B7800EB0310A0F80C240978FC
:103E200002E0C1F818A0E9B22046FEF7D8F903E095
:103E300032462046FEF7ABFA2068B0F84410090479
:103E40003FF53CAE0020BDE8F88F70B50546002078
:103E5000024607240FE0AB5C58400023060602D55B
:103E600084EA400000E040005B1CDBB2C0B2082BDB
:103E7000F4D3521C92B28A42EDD370BD70B50546A0
:103E80000020024607240FE0AB5C584000230606E2
:103E900002D584EA400000E040005B1CDBB2C0B207
:103EA000082BF4D3521C92B28A42EDD370BD10B5E8
:103EB0000446FCF741FA214682B2BDE810401020CA
:103EC000AFF300803EB50D46AA218DF804105521B0
:103ED0008DF805108DF80600100A8DF807001446BD
:103EE0008DF80820052101A8FFF7AFFF8DF800002D
:103EF0004DB144B121462846FFF7A7FF9DF80010B9
:103F000048408DF80000052101A801F0A7FF25B168
:103F10001CB12146284601F0A1FF0121684601F0AD
:103F20009DFF3EBD3EB50D46AA218DF804105521DA
:103F30008DF805108DF80600100A8DF8070014465C
:103F40008DF80820052101A8FFF798FF8DF80000E3
:103F50004DB144B121462846FFF790FF9DF800106F
:103F600048408DF80000052101A801F077FF25B138
:103F70001CB12146284601F071FF0121684601F07D
:103F80006DFF3EBD0348B0F80011B0F80201081AF9
:103F9000C0B270475C26002010B5FEF763F8BDE89C
:103FA0001040FFF731BD30B593B028216846FCF7CB
:103FB0007BFA14210AA8FCF777FA002401200F9459
:103FC00010941194010412948DE8130004904FF49E
:103FD000E010CDE90810022507956846FEF7B6FE09
:103FE00008B172B6FEE70F20CDE90A054FF48060F4
:103FF000CDE90C4002210AA80E94FEF7EBFD08B1B2
:1040000072B6FEE710200F9012940FA8FEF76CFD19
:10401000002801D072B6FEE713B030BD7047000033
:104020001CB50B4C4FF47A75D4E90001CDE90001C1
:10403000FFF7B0F90090FFF797F98DF80400072219
:104040006946FF20FFF73EFF2846FFF74BF9EBE7F5
:104050008468000830BFFDE74FF4FA74FFF740F8BA
:1040600001F09EFE08B1204600E0C820FFF73AF9B3
:10407000F4E70000ADF1180DFFF776F906460025CC
:1040800027E02846FFF776F9040020D0207B8DF842
:1040900000000020CDF80100CDF80500CDF80900A2
:1040A000616A21B10B220DF10100FCF724FAA07B1B
:1040B0008DF80D00607B8DF80E002846FFF732F971
:1040C000CDF80F00132269460120FFF7FBFE6D1C9F
:1040D000EDB2B542D5D34FF4FA60FFF703F9CBE761
:1040E00000F0B4FD4FF47A742046FFF7FBF8FBE7CD
:1040F00001F018FE0120FFF7F5F8F9E7ADF1400DEA
:1041000001F086FE30B14021684601F063FE03A055
:10411000FFF7CDFE0A20FFF7E5F8F1E755534220FF
:10412000636F6D6D616E6420726563656976656449
:104130000D0A000070B5AAB048A001F0C5FEFFF757
:10414000CFF922A8FFF7C2F9BDF88820BDF88C107E
:104150004AA001F02BFEFFF75DF90446FFF75AF97C
:104160000546FFF757F90646BCB1B5B1AEB14DA053
:1041700001F0AAFE00202054401C2028FBDB002177
:1041800001F164006854491C2029F9DB0020C2B207
:10419000215C914203D04CA105E04DA057E0401CAA
:1041A0002028F4DB51A152A001F000FE22A8FFF765
:1041B0008DF9BDF88C20BDF88A1058A001F0F6FDED
:1041C0002046FFF753F92846FFF750F93046FFF72E
:1041D0004DF922A8FFF77AF9BDF88C105BA001F029
:1041E000E5FD28A8FFF742F9022816D036A160A005
:1041F00001F0DCFD002634464FEA0D05FFF70AF911
:1042000045F8240008B1761CF6B2641C202CF5DBBE
:10421000FFF700F9202E02D003E034A1E7E70028E1
:1042200019D029A15BA001F0C1FD002455F824009C
:10423000FFF71CF9641C202CF8DB22A8FFF746F9D5
:10424000BDF88E105FA0269A01F0B0FD6CA001F0C1
:104250003BFE2AB070BD25A1E4E700000D0A3D3DFC
:104260003D205445535420313A204D454D4F52592D
:1042700020504F4F4C203D3D3D0D0A0042616E20C5
:104280006461753A20256420626C6F636B732074DF
:104290007520646F202F20256420746F6E670D0ACF
:1042A000000000005B4F4B5D20436170207068612F
:1042B00074203320626C6F636B207468616E6820B9
:1042C000636F6E670D0A00004641494C0000000014
:1042D0005B4641494C5D20436170207068617420E9
:1042E0007468617420626169210D0A004F4B0000FF
:1042F0005B25735D20426C6F636B20646F63206C81
:104300006170206E68617520286B686F6E6720622F
:104310006920676869206465290D0A00536175206A
:10432000616C6C6F633A2064616E672064756E67C0
:1043300020256420626C6F636B732C20636F6E208A
:10434000256420626C6F636B730D0A0053617520E6
:10435000667265653A20636F6E206C616920256422
:1043600020626C6F636B7320747520646F0D0A009C
:104370005B25735D204672656520706F696E74659C
:10438000722073616920747261207665206C6F6998
:104390000D0A00005B25735D204361702070686129
:1043A000742068657420333220626C6F636B732CE9
:1043B000207468656D2031207068616920666169CC
:1043C0006C0D0A00537472657373207465737420E6
:1043D000646F6E652E205065616B20757365643A5D
:1043E00020256420626C6F636B732E204661696CBC
:1043F00020636F756E743A20256C750D0A000000FD
:104400003D3D3D204D454D4F525920504F4F4C3A68
:1044100020444F4E45203D3D3D0D0A0010B52FA0D4
:1044200001F052FD34A13748FFF77CF83548FFF71B
:1044300093F8014634A001F0B9FC64213148FFF73C
:104440008FF804462F48FFF787F80346002C3AD030
:1044500034A1224635A001F0A9FC2A48FFF7ADF8A7
:104460000246012831D02FA13AA001F09FFC322151
:104470002448FFF775F80246022828D029A143A056
:1044800001F094FC1F48FFF7B0F804461D48FFF701
:1044900063F80346002C1CD022A1224647A001F05D
:1044A00085FC00211748FFF75BF8020013D01DA11F
:1044B0004BA001F07BFC1348FFF797F8BDE81040D4
:1044C00051A001F001BD56A1C3E755A1CCE754A10D
:1044D000D5E753A1E1E752A1EAE700000D0A3D3D0F
:1044E0003D205445535420323A204D5554455820D0
:1044F0003D3D3D0D0A000000546573744D757465B3
:1045000078000000242D00204B686F692074616FD3
:10451000206D757465783A206C6F636B65643D251A
:10452000640D0A004641494C000000005B25735DA4
:10453000204C6F636B206C616E20313A2073746184
:104540007475733D25642C206C6F636B65643D2529
:10455000640D0A005B25735D205472794C6F636BA8
:10456000206B68692064616E67206C6F636B6564A3
:10457000207068616920747261204C4F434B454440
:1045800020283D2564290D0A000000005B25735D8D
:10459000204C6F636B2074696D656F7574203530C6
:1045A0006D732070686169207472612054494D45B3
:1045B0004F555420283D2564290D0A005B25735D65
:1045C00020556E6C6F636B3A207374617475733D24
:1045D00025642C206C6F636B65643D25640D0A00B7
:1045E0005B25735D205472794C6F636B207361752A
:1045F00020756E6C6F636B2070686169204F4B2073
:10460000283D2564290D0A003D3D3D204D5554456A
:10461000583A20444F4E45203D3D3D0D0A000000D4
:104620004F4B000030B58BB048A001F04DFC50A3BB
:10463000042208215148FFF707F85048FEF7FFFF12
:1046400003464E480821B0F802214DA001F0AEFB10
:1046500000246425FDF700FD049004EB840005EBC5
:104660004000ADF814008DF81640002204A943481C
:10467000FFF796F8BDF81430002841D04AA1224631
:104680004BA001F093FB641C032CE3DB3B48FEF7DB
:10469000D6FF01464EA001F089FB02A93748FFF77B
:1046A00013F83648FEF7CBFF0246BDF80C1050A0B9
:1046B00001F07CFB0024642204A93048FFF71DF8B8
:1046C000BDF8141000919DF8163000281AD036A1BC
:1046D000224651A001F06AFB641C032CEBDB002294
:1046E00008A92648FFF709F8024602280CD02EA197
:1046F00053A001F05BFB002006900446079006E003
:1047000059A1BCE758A1E3E757A1F1E7641C0022D7
:1047100006A91A48FFF744F80028F7D01748FEF713
:10472000C7FF0246214651A001F040FB1348FEF7A7
:1047300075FF1248FEF783FF014656A001F036FBD5
:104740005AA001F0C1FB0BB030BD00000D0A3D3D89
:104750003D205445535420343A204D45535341474E
:1047600045205155455545203D3D3D0D0A00000071
:104770005465737451756575650000005C2D0020EB
:1047800051756575653A206D73675F73697A653D2C
:1047900025642064657074683D256420636F756EC0
:1047A000743D25640D0A00004641494C000000009C
:1047B0005B25735D2053656E64206D73675B2564B4
:1047C0005D2076616C75653D25640D0A0000000072
:1047D000517565756520636F756E74207361752002
:1047E000332073656E643A2025640D0A00000000D2
:1047F0005065656B3A2076616C75653D25642028AF
:1048000071756575652076616E20636F6E20256415
:10481000206D7367290D0A005B25735D2052656367
:1048200076206D73675B25645D3A2073656E736FE8
:10483000723D25642076616C75653D25640D0A0026
:104840005B25735D2052656376206B686920747206
:104850006F6E67207068616920454D50545920285B
:104860003D2564290D0A00004F4B0000446179206A
:1048700071756575653A206775692064756F632089
:104880002564206D73672C20497346756C6C3D253B
:10489000640D0A0053617520666C7573683A206375
:1048A0006F756E743D25640D0A0000003D3D3D208E
:1048B00051554555453A20444F4E45203D3D3D0D0F
:1048C0000A00000010B53FA001F0FEFA45A3012246
:1048D00000214648FFF71EF84448FFF715F8014647
:1048E00043A001F063FA00214048FFF743F8024675
:1048F00001285CD044A146A001F058FA3B48FFF7DC
:1049000023F804463948FEF7FFFF0346002C50D039
:104910003DA1224649A001F049FA3448FFF714F8B6
:104920000246022847D038A14DA001F03FFA642189
:104930002E48FFF71FF804462C48FEF7E5FF034614
:10494000002C3AD030A1224651A001F02FFA0322C8
:104950005CA311462548FEF7DDFF2448FEF7D4FF8F
:1049600001465BA001F022FA00212048FFF702F87F
:1049700000211E48FEF7FEFF00211C48FEF7FAFF4B
:104980001A48FEF7C1FF014659A001F00FFA0021B5
:104990001648FEF7EFFF0246012810D01AA15AA0D0
:1049A00001F004FABDE8104061A001F08DBA67A1E2
:1049B000A1E766A1ADE765A1B6E764A1C3E763A17E
:1049C000EDE700000D0A3D3D3D2054455354203392
:1049D0003A2053454D4150484F5245203D3D3D0DF5
:1049E0000A0000005465737453656D003C2D00206F
:1049F0004B686F692074616F2073656D20636F75FC
:104A00006E743D25640D0A004641494C00000000CB
:104A10005B25735D2057616974206B686920636F43
:104A2000756E743D3020706861692054494D454F62
:104A3000555420283D2564290D0A00005B25735D2F
:104A400020506F73743A207374617475733D2564DC
:104A50002C20636F756E743D25640D0A0000000004
:104A60005B25735D20506F7374206B686920636FE2
:104A7000756E743D6D617820706861692053454D95
:104A80005F46554C4C20283D2564290D0A00000046
:104A90005B25735D2057616974206B686920636FC3
:104AA000756E743D312070686169204F4B20283D40
:104AB0002564292C20636F756E74207361753D2504
:104AC000640D0A00436F756E7453656D000000003D
:104AD000436F756E74696E672073656D20286D6114
:104AE000783D332920636F756E743D25640D0A008F
:104AF000536175203320776169743A20636F756E56
:104B0000743D25640D0A00005B25735D20576169C3
:104B10007420746875203420706861692054494D90
:104B2000454F555420283D2564290D0A00000000FA
:104B30003D3D3D2053454D4150484F52453A20445C
:104B40004F4E45203D3D3D0D0A0000004F4B0000FB
:104B500000B589B018A001F0B7F903A8FEF7B6FCBC
:104B600020480C22694600680090BDF80E00400104
:104B70000190BDF81000400102900320FFF7D2F928
:104B800019A001F0A1F9002008902048FEF7E4FCEC
:104B90008DF821001D48FEF7BFFC8DF8220003228E
:104BA00008A90420FFF7BEF919A001F08DF921A092
:104BB00001F08AF909B000BD0D0A3D3D3D20544584
:104BC000535420353A2047554920535441545320DB
:104BD0005155412050524F544F434F4C203D3D3D85
:104BE0000D0A0000B06800085B4F4B5D204D656DFD
:104BF0006F727920737461747573207061636B6573
:104C000074206461206775690D0A0000242D00205E
:104C10005B4F4B5D204D75746578207374617475BE
:104C200073207061636B6574206461206775690D22
:104C30000A0000003D3D3D2053544154533A204466
:104C40004F4E45203D3D3D0D0A0000001C4810B56B
:104C50000178002932D1012101704FF4FA60FEF78A
:104C600041FB18A001F030F917A001F02DF921A0A7
:104C700001F02AF914A001F027F9FFF75BFA64208C
:104C8000FEF730FBFFF7CAFB6420FEF72BFBFFF7B4
:104C900019FE6420FEF726FBFFF7C4FC6420FEF734
:104CA00021FBFFF755FF1AA001F00EF924A001F037
:104CB0000BF9BDE8104004A001F006B910BD0000DA
:104CC000980100200D0A00003D3D3D3D3D3D3D3D2C
:104CD0003D3D3D3D3D3D3D3D3D3D3D3D3D3D3D3D04
:104CE0003D3D3D3D3D3D3D3D3D3D3D3D3D3D3D3DF4
:104CF0000D0A00002020545632202D204D454D4FE6
:104D0000525920262049504320544553540D0A003F
:104D10000D0A3D3D3D3D3D3D3D3D3D3D3D3D3D3D26
:104D20003D3D3D3D3D3D3D3D3D3D3D3D3D3D3D3DB3
:104D30003D3D3D3D3D3D3D3D3D3D0D0A00000000FA
:104D40002020414C4C20544553545320444F4E4551
:104D50000D0A00000448B0F80012B0F80202081A68
:104D6000C0F3080070470000582400202DE9F041EE
:104D7000D0F8C032D0F8B822CAB101EB810500EBFF
:104D800085040026E7693FB103EBC5031B6AB7FB47
:104D9000F3F503FB157323B1C2F814620020BDE8DC
:104DA000F08100231A46E66100F07EFCF6E702205F
:104DB000F5E770B50546D0F8B84200F07AFBC4F8C4
:104DC0000C02D5F8B80248B1D5F8BC12D4F80402E8
:104DD000CA6804F503719047002070BD022070BDC1
:104DE00070B504460026812100F0B6FA00250121A5
:104DF0002046E56200F0B0FA82212046C4F86C51EA
:104E000000F0AAFA2564D4F8B80248B1D4F8BC027C
:104E100004F52E7440688047206800F014FE256079
:104E2000304670BD10B5D0E9AE4159B194F80002DA
:104E3000FF2807D08B6894F8012221469847FF206D
:104E400084F80002002010BD0A210180004870474C
:104E5000740000204321018000487047C4000020F6
:104E600043210180004870478000002043210180D9
:104E700000487047080100202DE9F0410446002653
:104E8000007C4FF40077012590B34023022281215A
:104E9000204600F062FB4023E56202220121204609
:104EA00000F05BFB0823032282212046C4F86C51EA
:104EB00000F053FB4FF40770256400F0C5FDC4F803
:104EC000B802F8B10546D4F8BC020068804700205B
:104ED000C5F81402C5F81802207CD5F8042298B150
:104EE00040230121204600F044FB3046BDE8F0811C
:104EF000FFE73B4602228121204600F02EFB3B4685
:104F0000E562CAE70126F0E73B46EAE710B5D0F8CC
:104F1000B81269B1027C002AD1F8042205D04023DE
:104F2000012100F026FB002010BD4FF40073F7E7CD
:104F3000022010BD02460220002902D00020C2F843
:104F4000BC127047D0F8B802C0F8041200207047B5
:104F5000D0F8B802C0F81022C0F80812002070473C
:104F60002DE9FC410546D0F8B87200208DF800000C
:104F7000ADF80400064608780C4610F0600121D018
:104F800020293BD1E288AAB10006607807D5D5F880
:104F9000BC128B6839469847E288394626E087F884
:104FA0000002A07987F80102E2883946284600F01D
:104FB0006AF828E0D5F8BC12607800228B68214698
:104FC000984720E0607820B10A2809D00B2815D135
:104FD00010E095F89C02032810D1022201A905E0F7
:104FE00095F89C02032809D101226946284600F061
:104FF00064F808E095F89C02032804D0214628466E
:1050000000F036F802263046BDE8FC8110B5D0F835
:10501000B812A1B1D1F814220AB1012010BD0122A9
:10502000C1F81422D1F810220263B1F8102293B211
:10503000D1F80822812100F037FB002010BD0220AA
:1050400010BD10B5D0F8B42252689047002010BDB2
:10505000134610B50A46002100F08BFA002010BD5F
:10506000134610B50A46002100F01EFB002010BDBB
:1050700010B50446802100F0FCFA2046BDE810403F
:10508000002100F0F6BA10B50323C0F85C21C0F887
:105090009432C0F8602113460A46002100F069FAF4
:1050A000002010BD10B505210023C0F894121A4647
:1050B000194600F05EFA002010BD10B50223C2614F
:1050C000C0F89432026213460A46002100F0ECFA5E
:1050D000002010BD10B504210023C0F894121A4618
:1050E000194600F0E1FA002010BD000010B50A4694
:1050F000024903A000F0E2F8004810BD601500204E
:1051000043444320436F6E666967000012200880A5
:10511000004870472000002010B50A46024903A04D
:1051200000F0CCF8004810BD601500204344432037
:10513000496E746572666163650000000420088032
:10514000004870471C00002010B50A46024903A021
:1051500000F0B4F8004810BD6015002053544D69AC
:1051600063726F656C656374726F6E696373000060
:1051700010B50A46024903A000F0A0F8004810BD8F
:105180006015002053544D33322056697274756196
:105190006C20436F6D506F727400000010B51A20C0
:1051A00008800A480168001D0468001D006808188E
:1051B00009D008220649FDF76FFF05490422103186
:1051C0002046FDF769FF0248801E10BDE8F7FF1F6B
:1051D00036000020F8B504460020ADF800004888ED
:1051E0000D46010A082948D2DFE801F047040917F3
:1051F00047473C45D4F8B012207C0A6819E0207C6F
:1052000002260028D4F8B40205D0C16A684688474F
:10521000014646703EE0816AF8E7C0B206282CD20B
:10522000DFE800F0030A1014181CD4F8B00242683A
:1052300005E0694690471CE0D4F8B0028268E2B10C
:10524000207CF6E7D4F8B002C268F8E7D4F8B002E0
:105250000269F4E7D4F8B0024269F0E7D4F8B0028A
:105260008269ECE7207C40B9D4F8B402416B68460F
:10527000884701460EE0207C20B129462046FFF7F2
:10528000F7FEF8BDD4F8B402016B684688470146C2
:1052900007204870BDF8000048B1EA8852B1824248
:1052A00000D90246ADF800202046FFF706FFE88847
:1052B0000028E6D12046FFF70DFFF8BD70B50023AA
:1052C00000281ED00446002502E06D1CEDB2641CCF
:1052D0002678002EF9D1022404EB450414801278BC
:1052E000CA545B1C0322CA5400245B1C06E0CA5447
:1052F0005B1CDAB28C54521CD3B2401C0278002AD8
:10530000F5D170BD01004FF0000004D0012901D09B
:10531000022901D0022070470120704710B580B1EA
:10532000D0F8B43213B10023C0F8B43209B1C0F8D8
:10533000B012012180F89C12027000F0BFF800202A
:1053400010BD022010BD10B5D0F8C002FCF77FFFE1
:10535000BDE81040FFF7D6BF10B5D0F8C002FCF78B
:1053600051FFBDE81040FFF7CDBF2DE9F0411746D2
:10537000044651B1D4F8B40242691AB194F89C02BF
:10538000032851D00220BDE8F081D4F894320025E2
:1053900004F11400022B03D0042B3AD0C3B33CE039
:1053A000D0E903639E4207D9F11AC1608AB2394637
:1053B0002046FFF755FE12E08068B0FBF3F103FBD7
:1053C000110199B9984211D3D4F8981288420DD29C
:1053D000002211462046FFF743FEC4F898520023EE
:1053E0001A461946204600F0C4F816E0D4F8B40274
:1053F000C16829B194F89C02032801D1204688474E
:105400008021204600F035F92046FFF74BFE04E0EE
:10541000FFE78021204600F02CF994F8A002012833
:1054200004D184F8A05201E0204690470020AAE76A
:1054300070B51546044649B1D4F8B40282691AB170
:1054400094F89C02032830D0022070BDD4F8941246
:1054500004F5AA70032902D005291ED027E0D0E95F
:1054600003218A420BD9531AC3600846834200D3F2
:1054700003469AB229462046FFF7EAFD17E0D4F822
:10548000B402016929B194F89C02032801D1204695
:1054900088472046FFF71EFE09E000200146C4F8B9
:1054A0009402204600F0E5F801E0204690470020F5
:1054B00070BDD0F8C002FDF706B9000010B5044673
:1054C0001C481D49C0F8D442C4F8C002016008213C
:1054D00001710221817100218172C1720173FDF796
:1054E00027FA08B1FCF7B7FC0022D4F8C002182351
:1054F000114604F53074FCF753FE58230022802136
:105500002068FCF74DFEC023002281212068FCF7B3
:1055100047FE4FF48873002201212068FCF740FE0B
:105520004FF48073002282212068FCF739FE0020AE
:1055300010BD000080210020005C00400A0601F040
:105540007F01D0F8C00201EB810100EBC10001D561
:10555000807C704790F85201704710B51C46134686
:10556000D0F8C0022246FDF7B7F8BDE81040FFF7BB
:10557000C9BE10B5D0F8C002FDF7DAF8BDE810409A
:10558000FFF7C0BE70B50022044640231146FFF766
:10559000E4FF40260125C4F86461334600228021DF
:1055A0002046C4F85851FFF7D8FF6662A56184F819
:1055B0009C520020C4F894026060C4F8A402D4F89D
:1055C000B80228B1D4F8B4020021426820469047BE
:1055D000002070BD90F89C12042903D190F89D1210
:1055E00080F89C120020704710B590F89C12032997
:1055F00004D1D0F8B412C96901B18847002010BDA8
:1056000001740020704710B5D0F8C002FDF727FAEA
:10561000BDE81040FFF776BE70B5044600F52A706D
:10562000054600F04AF80120C4F89402B4F8AE022E
:10563000C4F8980294F8A80210F01F010AD00129BA
:105640000DD0022910D000F08001204600F011F8A2
:10565000002070BD2946204600F09DF8F8E7294655
:10566000204600F0C9F9F3E72946204600F01CF96E
:10567000EEE710B5D0F8C002FDF771F8BDE81040B4
:10568000FFF740BE10B5D0F8C002FDF702FABDE842
:105690001040FFF737BE90F89C1280F89D1204214D
:1056A00080F89C120020704710B5D0F8C002FDF7BA
:1056B0008EF8BDE81040FFF725BE0A7802704A78E0
:1056C00042708A78CB7802EB032242800A794B79C8
:1056D00002EB032282808A79C97902EB0121C18021
:1056E00070470246002011B1C2F8B4127047022080
:1056F000704710B5D0F8B42202241AB1126890474E
:1057000000B90024204610BD70B50E461E4D8978A4
:1057100004462970012931D894F89C0202280BD044
:1057200003280FD031462046FFF7A2FC29782046F7
:10573000BDE87040FFF785BCD9B10320616084F8F3
:105740009C0209E071B16068884212D0C1B2204663
:10575000FFF777FC297861602046FFF7CAFF02282F
:105760000CD006E0022084F89C0220466160FFF71E
:1057700068FC2046BDE87040FFF7ACBC31462046CF
:10578000BDE87040FFF774BC7000002010B5FFF753
:1057900079FF002010BD2DE9F0410A78002612F0B3
:1057A000600208D0202A01D0402A70D1D0F8B4225B
:1057B000926890476DE04B78002201250A2B66D253
:1057C000DFE803F0405D6557650805652C29FFF7A4
:1057D00001FD5EE004468888D8B9C888C8B9488801
:1057E000802816D200F07F0794F89C02032810D07E
:1057F00084F89E7239462046FFF705FF2046FFF7E2
:1058000069FC1FB1022084F89C0242E084F89C529B
:105810003FE020463BE0FFF777FF3AE0CB88012BE3
:1058200035D190F89C32012B04D0022B02D0032BEF
:105830002DD104E08260012200F1080116E001226E
:10584000011D13E090F89C22012A03D0022A01D006
:10585000032A1CD1CA88022A19D1C560D0F8A41223
:1058600009B10321C160022200F10C01FFF725FC00
:105870000FE0498801290CD1C0F8A45211E090F83A
:105880009C32012B08D0022B06D0032B04D0FFF74B
:10589000EFFB3046BDE8F08149880129F9D1C0F815
:1058A000A422FFF717FCF4E72DE9F0410A4604466D
:1058B00010780027097910F060030AD0202B01D05E
:1058C000402B50D1D4F8B402114683682046984743
:1058D0008FE0C0F34110012806D05078D0B30128E2
:1058E0002AD003283FD107E0D4F8B40211468368D8
:1058F0002046BDE8F041184794F89C02022802D0E7
:10590000032872D10AE071B380296ED02046FFF7D8
:10591000B0FE80212046FFF7ACFE6AE0508838B91F
:1059200031B1802904D0D08810B92046FFF7A1FEFC
:105930002046FFF7CFFB5CE094F89C020228E2D0FF
:10594000032852D1508898BB4806F1D02046FFF773
:10595000FAFCEDE7FFE794F89C020026022803D04A
:10596000032842D112E040E009B180293DD1080668
:1059700001F07F0000EB800004EB800101D51431C1
:1059800001E001F5AA7102220E602AE0080601F08A
:105990000F0000EB800004EB80000AD5806920B383
:1059A00001F07F0000EB800004EB800514350BE074
:1059B0001FE0D0F85801C0B101F07F0000EB80007B
:1059C00004EB800505F5AA7541B1802906D0204673
:1059D000FFF7B4FD10B10120286000E02E60022224
:1059E00029462046FFF769FB03E011462046FFF7F2
:1059F0003FFB3846BDE8F08170B5054608780C4697
:105A000010F0600003D0202801D0402816D195F86E
:105A10009C02012803D0022801D003280ED120794E
:105A200001280BD8D5F8B402826828469047E1884F
:105A3000014306D12846FFF74DFB02E02846FFF759
:105A400017FB002070BD704700487047601F0020A2
:105A50002DE9F0470C78002630F8243048F68F12F4
:105A60001340CA78002A78D0012A7CD0022A02D0BA
:105A7000032A75D0012648F28002134320F824300F
:105A80000D7830F8253048F68F7423402B431343AC
:105A900020F825300D7B48F2C00948F6BF734CF260
:105AA000800A4BF68F77EDB3CD7891F800C0022DC8
:105AB00030F82C507DD048F68F6805EA080515436C
:105AC00020F82C50B0F8505091F800C0054405EB78
:105AD0000C15B1F808C02CF0010CA5F800C4B0F802
